:020000040800F2
:1000000018040020750F00082D0E00082F0E0008A0
:10001000310E0008330E0008350E00080000000005
:10002000000000000000000000000000370E000883
:10003000390E0008000000003B0E00083D0E0008CD
:10004000910F0008410E0008950F0008990F000855
:100050009D0F0008A10F0008A50F0008A90F0008B8
:10006000AD0F0008B10F0008B50F0008B90F000868
:10007000BD0F0008C10F0008C50F0008C90F000818
:10008000CD0F0008D10F0008D50F0008D90F0008C8
:10009000DD0F0008E10F0008E50F0008E90F000878
:1000A000ED0F0008F10F0008F50F0008F90F000828
:1000B000FD0F0008011000080510000809100008D5
:1000C0000D10000811100008151000081910000884
:1000D0001D10000821100008251000082910000834
:1000E000450E00082D1000083110000835100008DA
:1000F000391000083D1000084110000845100008A4
:10010000491000084D100008511000085510000853
:10011000591000085D100008611000086510000803
:10012000691000086D1000087110000875100008B3
:100130007910000800000000000000007D10000899
:100140008110000885100008891000088D10000833
:100150009110000895100008991000089D100008E3
:10016000A1100008A5100008A9100008AD10000893
:10017000B1100008B51000080000000000000000E9
:10018000B9100008BD1000082DE9F843040016D08E
:100190002078DFF8F462C10713D5B06800F00C00D6
:1001A000042807D0B06800F00C0008283DD1706822
:1001B00041023AD53068810303D56068002800F019
:1001C0005E812078B14F810719D5B06810F00C0F0F
:1001D00007D0B06800F00C0008285BD170684102BD
:1001E00058D43068810703D5E068012840F0478182
:1001F0003168206921F0F80141EAC00131602178BD
:10020000080779D56069A249002868D001220A60F0
:1002100000F042F90546706F81076DD400F03CF99B
:10022000401B0228F7D903202CE16068B0F5803F1D
:1002300004D1306840F48030306011E0B0F5A02F78
:10024000306806D140F480203060316841F480315C
:1002500005E020F480303060316821F48021316085
:10026000606858B100F018F9054630688103A8D4D9
:1002700000F012F9401B6528F7D3D4E700F00CF921
:100280000546306881039CD500F006F9401B6528BF
:10029000F7D3C8E7E068A8B10121396000F0FCF8A5
:1002A00005463068810705D400F0F6F8401B0228A7
:1002B000F7D9B8E73068216920F0F80040EAC100BA
:1002C00030609CE7386000F0E7F805463168880741
:1002D00095D500F0E1F8401B0228F7D9A3E70860A4
:1002E00000F0DAF80546706F810705D500F0D4F804
:1002F000401B0228F7D996E7207841075FD5306C7C
:100300000025C1000AD400950125316C41F08051CF
:100310003164306C00F0805000900098DFF87481F8
:10032000D8F80000C10513D4D8F8000040F480705C
:10033000C8F8000000F0B0F88146D8F80000C10508
:1003400006D400F0A9F8A0EB09000228F5D96AE765
:10035000A068012805D00528306F06D140F00400C0
:100360003067306F40F0010005E040084000306722
:10037000306F20F00400306741F28938A06860B126
:1003800000F08AF88146306F810713D400F084F8BA
:10039000A0EB09004045F6D345E700F07DF8814623
:1003A000306F810706D500F077F8A0EB09004045D3
:1003B000F6D338E71DB1306C20F080503064A0696E
:1003C00000285ED0B16801F00C0108293AD002285B
:1003D0002AD10020386600F05FF8054630688101B8
:1003E00005D500F059F8401B0228F7D91BE7E06952
:1003F000216A626A0843A16A490840EA8210491EDC
:1004000040EA0140E16A40EA01607060012038661C
:1004100000F042F804463068810132D400F03CF824
:10042000001B0228F7D9FEE60020386600F034F8F9
:1004300004463068810124D500F02EF8001B022804
:10044000F7D9F0E601281AD07068E26900F480015B
:10045000914202BF00F03F01226A91420FD147F65C
:10046000C071626A0140914202BF00F44031A26A49
:10047000914202BF00F07060E16A884201D0012021
:1004800000E00020BDE8F28300380240000047424F
:10049000800E47420070004001484068704700BF2E
:1004A000000000202DE9F84F0D4600267249734ADE
:1004B0000F23044601202F68B04000EA070880455A
:1004C00040F0C1804FEA460C032707FA0CF76FEAA9
:1004D000070E6F68012F18BF022F03D0112F18BF0E
:1004E000122F12D1A768D5F80C900EEA070709FA67
:1004F0000CF949EA0707A760676827EA00006F68F8
:10050000C7F30017B74038436060E068AF680EEA91
:10051000000007FA0CF73843E060B0006F68022F64
:1005200018BF122F12D1F70804EB870700F01C093F
:10053000D7F820A003FA09FB2AEA0B0AD5F810B075
:100540000BFA09F949EA0A09C7F8209027680EEA68
:10055000070E2F7907F0030707FA0CF747EA0E0793
:1005600027606F68FF006ED5002700974FEA960C52
:10057000176847F48047176000F00C00176807F40D
:100580008047009703FA00FE009F3D4F57F82C70FC
:1005900027EA0E0E3B4FBC4208BF002722D03A4F3D
:1005A000BC4208BF01271DD0384FBC4208BF0227FC
:1005B00018D0374FBC4208BF032713D0354FBC4279
:1005C00008BF04270ED0344FBC4208BF052709D00E
:1005D000324FBC4208BF062704D0314FBC420CBF8B
:1005E0000727082707FA00F0254F40EA0E0047F8D2
:1005F0002C006FEA08000F6800EA070C6F68FF0321
:1006000048BF48EA0C0CC1F800C04F6800EA070C6C
:100610006F68BF0348BF48EA0C0CC1F804C08F687C
:1006200000EA070C6F68FF0248BF48EA0C0CC1F8EB
:1006300008C0CF6800EA070C6868800248BF48EA33
:100640000C0CC1F80CC0761C0F2E7FF633AFBDE842
:10065000F18F0069084018BF0120C0B2704702B98D
:100660000904816170470F4A136803421CBF106080
:1006700000F0AFB870470000003C01404438024031
:100680000838014000000240000402400008024017
:10069000000C02400010024000140240001802400A
:1006A000001C0240143C01402DE9F84596B004A816
:1006B0005549DFF85881564D482200F0B9F8684690
:1006C00057A1102200F0B4F800F0BEF800F036F8A0
:1006D00000F0D4F8002400260DF1100A287860B943
:1006E0005AF8247000F025F800F01FF8002200F0FE
:1006F00021F8641C122C28BF0024FA2000F01EF9F7
:10070000687870B95DF8267000F013F800F00DF805
:10071000002200F00FF800F008F8761C042EA8BFA5
:100720000026FA2000F00AF9D8E74FF4FA7000F03A
:1007300005B90122B9B24046FFF791BF80B592B02A
:100740003022002106A800F00DF91422002101A892
:1007500000F008F9002000904FF480332D48016824
:1007600041F0805101600021006800F0805000904D
:10077000009829480091026842F4804202600122F8
:10078000006800F48040009006A8009906920221BB
:100790004FF480020C910D920421A8220E910F9229
:1007A00002210422079310911192FFF7EDFC022120
:1007B0000291002203920F204FF4A0510190049166
:1007C0004FF480520592052101A800F0D5F813B02E
:1007D00000BD38B5114D4FF480512846FFF739FF61
:1007E0000B4C28B12078411E8941C90F217031BDC1
:1007F0004FF400512846FFF72CFF20B16078411ECE
:100800008941C90F617031BDE40D00080008024044
:1008100010000020403802400070004000040240F8
:1008200001000000020000000400000008000000B9
:100830004AB1000011F8013B521E00F8013B1CBFF9
:1008400011F8013BF8E7704780B50B48016841F4A7
:1008500000710160026842F480620260016841F444
:1008600080710160032000F054F9002000F0A6F927
:1008700000F0C4F9002002BD003C024038B586B04B
:100880001422002101A800F06DF800212748284C0F
:1008900000914FF60F75026842F0040202600022D8
:1008A000016801F00401009100990092036843F08F
:1008B00080030360016801F08001009100990092BB
:1008C000036843F002030360016801F00201009134
:1008D000009900922946036843F001030360006811
:1008E00000F00100009000982046FFF7B8FE0121BB
:1008F0000291002203920492019501A92046FFF77C
:10090000D1FD4FF440500B49019002910022039217
:1009100001A90948FFF7C6FD00220021282000F0A8
:1009200005F9282000F01FF907B030BD303802402B
:1009300000080240000011100004024038B50446CF
:10094000FFF7AAFD14F1010F054602D00448017813
:100950006418FFF7A1FD401BA042FAD331BD00BFD0
:100960000000002010B5044610460A460146204605
:1009700000F068F9204610BD2DE9F04104000F4653
:1009800054D0404E306800F00F00B84202D200F060
:1009900073F84BD120683C4D810712D5400703D531
:1009A000A96841F4E051A9602078010703D5A8683F
:1009B00040F46040A860A968A06821F0F0010143FC
:1009C000A9602178C80729D56068012802D1296863
:1009D0008A0305E0022818BF032803D129688A0189
:1009E00003D423E029688A0720D5A968890840EA4A
:1009F0008100A860FFF750FD8046A868616800F09C
:100A00000C00B0EB810F09D0FFF746FDA0EB08000A
:100A100041F289318842F0D303202BE0306800F0A6
:100A20000F00874204D200F027F801D0012021E016
:100A30002078410705D5AA68E06822F4E052024315
:100A4000AA602178080706D5A968206921F46041C9
:100A500041EAC001A96000F01FF8AA680B490C4BDD
:100A6000C2F30312895CC84018600A48006800F0AD
:100A7000A5F80020BDE8F0813770316801F00F0162
:100A8000B9427047003C024000380240A80E0008FE
:100A90000C0000200800002030B5144C606800F005
:100AA0000C00042802D0082802D01DE0104830BDF8
:100AB000226820680023410202F03F0204D5256825
:100AC0000B49C5F3881003E020680A49C0F3881079
:100AD000A1FB000100F000F92168C1F30141491CAC
:100AE0004900B0FBF1F030BD024830BD043802408F
:100AF00000127A000024F4000901020002D42948FF
:100B000081547047284B02F00F021A4402F8041C6B
:100B10007047264B19684FF6FF020002114000F49F
:100B2000E0600843224908431860704770B51F4BC6
:100B30001C68C4F302230124C3F10705052D2EBF51
:100B40000F2504FA05F56D1E1E1D072E34BF002368
:100B5000DB1E2940994004FA03F3BDE870405B1E98
:100B60001A401143C8E7010007D4012200F01F0119
:100B7000104B8A40400943F82020704710B5401EB2
:100B8000B0F1807F01D3012010BD0B4C60600F21BC
:100B90004FF0FF30FFF7B0FF0021A1600720206079
:100BA000002010BD00E400E018ED00E00CED00E0D6
:100BB0000000FA0500E100E010E000E038B50D4D5E
:100BC0000D4B2A7804464FF47A711868B1FBF2F2A3
:100BD000B0FBF2F0FFF7D2FF50B9102C08D2002280
:100BE00021464FF0FF30FFF7A1FFAC60002032BD7F
:100BF000012032BD000000200C00002080B5002044
:100C0000009000220E48416841F4804141604168F3
:100C100001F480410091009900920021036843F0A3
:100C200080530360006800F080500090009801201D
:100C3000FFF77CFFBDE802400120FFF794BF00BF33
:100C40004038024062F30F2262F31F42401810F056
:100C5000030308D0C91A1FD3DB0748BF00F8012DD2
:100C600028BF20F8022D130030B414461546103961
:100C700028BF20E93C00FAD8490728BF20E90C002A
:100C800048BF40F8042D890028BF20F8022D48BF36
:100C900000F8012D30BC7047C91818BF00F8012DAD
:100CA000CB0728BF00F8012D704730B40EE0026872
:100CB000436802440830DC0744BFA9F10104E3188B
:100CC00052F8045B43F8045B091FF9D150F8041B88
:100CD0000029ECD130BC7047D3BBD9B1B2F5803F0D
:100CE0005BD2022A1ED98C46B1FBF2F102FB11C382
:100CF0001B0443EA1043B3FBF2FC02FB1C3380B23B
:100D000040EA0343B3FBF2F002FB103240EA0C402E
:100D100000237047022A05D98446B0FBF2F002FB9B
:100D200010C270474AB105D100F0010249085FEADC
:100D30003000704700220023704700F051B80B00CC
:100D40000200002100207047F7D3002200237047E3
:100D5000904271EB030CF2D370B5B1FA81F4B3FA9F
:100D600083F52C1BA340C4F1200532FA05F633436A
:100D7000A2405FF00046E64002E05B085FEA320214
:100D8000841A71EB030524BF204629467641F4D32B
:100D900002000B003000002170BD70B5B1FA81F483
:100DA000B2FA82F5C4F120046419B4F12006DAD352
:100DB000B2405FF00044F440002502E052085FEAD0
:100DC0003303C61A71EB020E24BF304671466441EC
:100DD0006D41F3D302000B002000290070BD00001C
:100DE00070470000003F000000060000005B0000AC
:100DF000004F000000660000006D0000007C000055
:100E000000070000007F000000670000007700007E
:100E1000007C000000390000005E00000079000046
:100E20000071000000080000008000007047FEE72D
:100E3000FEE7FEE7FEE770477047704700F00EB828
:100E400000F014B880B54FF48050FFF70CFCBDE8FB
:100E500002404FF40050FFF706BC00000248416812
:100E600002788A18426070470000002010B5054CD7
:100E70002068C10304D500F007F84FF480302060EB
:100E800010BD0000143C0140704700000448054AB2
:100E9000016841F4700101604FF00060106070471C
:100EA00088ED00E008ED00E0000000000000000018
:100EB000010203040607080910B5074979441831EF
:100EC000064C7C44163404E00A68081D1144884727
:100ED0000146A142F8D110BD2C0000003C000000EA
:100EE0004EF68851CEF20001086840F470000860A8
:100EF000BFF34F8FBFF36F8F4FF00070E1EE100A1A
:100F000070470000A7FDFFFF140000005400000020
:100F1000000000200000000000F00DF8002801D0C3
:100F2000FFF7CAFFAFF300800020AFF30080FFF7A8
:100F3000BBFB00F002F80120704700F001B8000090
:100F40000746384600F002F8FBE7000080B5AFF333
:100F50000080024A11001820ABBEFBE72600020009
:100F60000100000000000000100000000024F40058
:100F70000000000001488047014800478D0E00082E
:100F8000850F0008AFF30080FFF7AAFFFFF7C4FF4B
:100F9000FFF7FEBFFFF7FEBFFFF7FEBFFFF7FEBF85
:100FA000FFF7FEBFFFF7FEBFFFF7FEBFFFF7FEBF75
:100FB000FFF7FEBFFFF7FEBFFFF7FEBFFFF7FEBF65
:100FC000FFF7FEBFFFF7FEBFFFF7FEBFFFF7FEBF55
:100FD000FFF7FEBFFFF7FEBFFFF7FEBFFFF7FEBF45
:100FE000FFF7FEBFFFF7FEBFFFF7FEBFFFF7FEBF35
:100FF000FFF7FEBFFFF7FEBFFFF7FEBFFFF7FEBF25
:10100000FFF7FEBFFFF7FEBFFFF7FEBFFFF7FEBF14
:10101000FFF7FEBFFFF7FEBFFFF7FEBFFFF7FEBF04
:10102000FFF7FEBFFFF7FEBFFFF7FEBFFFF7FEBFF4
:10103000FFF7FEBFFFF7FEBFFFF7FEBFFFF7FEBFE4
:10104000FFF7FEBFFFF7FEBFFFF7FEBFFFF7FEBFD4
:10105000FFF7FEBFFFF7FEBFFFF7FEBFFFF7FEBFC4
:10106000FFF7FEBFFFF7FEBFFFF7FEBFFFF7FEBFB4
:10107000FFF7FEBFFFF7FEBFFFF7FEBFFFF7FEBFA4
:10108000FFF7FEBFFFF7FEBFFFF7FEBFFFF7FEBF94
:10109000FFF7FEBFFFF7FEBFFFF7FEBFFFF7FEBF84
:1010A000FFF7FEBFFFF7FEBFFFF7FEBFFFF7FEBF74
:1010B000FFF7FEBFFFF7FEBFFFF7FEBFFFF7FEBF64
:0400000508000F855B
:00000001FF
