:020000040800F2
:1000000010040020610E00083D0E00083F0E00089D
:10001000410E0008430E0008450E000800000000D5
:10002000000000000000000000000000470E000873
:10003000490E0008000000004B0E00084D0E00089D
:100040008D0E0008910E0008950E0008990E00080C
:100050009D0E0008A10E0008A50E0008A90E0008BC
:10006000AD0E0008B10E0008B50E0008B90E00086C
:10007000BD0E0008C10E0008C50E0008C90E00081C
:10008000CD0E0008D10E0008D50E0008D90E0008CC
:10009000DD0E0008E10E0008E50E0008E90E00087C
:1000A000ED0E0008F10E0008F50E0008F90E00082C
:1000B000FD0E0008010F0008050F0008090F0008D9
:1000C0000D0F0008110F0008150F0008190F000888
:1000D0001D0F0008210F0008250F0008290F000838
:1000E0002D0F0008310F0008350F0008390F0008E8
:1000F0003D0F0008410F0008450F0008490F000898
:100100004D0F0008510F0008550F0008590F000847
:100110005D0F0008610F0008650F0008690F0008F7
:100120006D0F0008710F0008750F0008790F0008A7
:100130007D0F00080000000000000000810F000893
:10014000850F0008890F00088D0F0008910F000827
:10015000950F0008990F00089D0F0008A10F0008D7
:10016000A50F0008A90F0008AD0F0008B10F000887
:10017000B50F0008B90F00080000000000000000E3
:10018000BD0F0008C10F00082DE9F843040016D088
:100190002078DFF8F462C10713D5B06800F00C00D6
:1001A000042807D0B06800F00C0008283DD1706822
:1001B00041023AD53068810303D56068002800F019
:1001C0005E812078B14F810719D5B06810F00C0F0F
:1001D00007D0B06800F00C0008285BD170684102BD
:1001E00058D43068810703D5E068012840F0478182
:1001F0003168206921F0F80141EAC00131602178BD
:10020000080779D56069A249002868D001220A60F0
:1002100000F042F90546706F81076DD400F03CF99B
:10022000401B0228F7D903202CE16068B0F5803F1D
:1002300004D1306840F48030306011E0B0F5A02F78
:10024000306806D140F480203060316841F480315C
:1002500005E020F480303060316821F48021316085
:10026000606858B100F018F9054630688103A8D4D9
:1002700000F012F9401B6528F7D3D4E700F00CF921
:100280000546306881039CD500F006F9401B6528BF
:10029000F7D3C8E7E068A8B10121396000F0FCF8A5
:1002A00005463068810705D400F0F6F8401B0228A7
:1002B000F7D9B8E73068216920F0F80040EAC100BA
:1002C00030609CE7386000F0E7F805463168880741
:1002D00095D500F0E1F8401B0228F7D9A3E70860A4
:1002E00000F0DAF80546706F810705D500F0D4F804
:1002F000401B0228F7D996E7207841075FD5306C7C
:100300000025C1000AD400950125316C41F08051CF
:100310003164306C00F0805000900098DFF87481F8
:10032000D8F80000C10513D4D8F8000040F480705C
:10033000C8F8000000F0B0F88146D8F80000C10508
:1003400006D400F0A9F8A0EB09000228F5D96AE765
:10035000A068012805D00528306F06D140F00400C0
:100360003067306F40F0010005E040084000306722
:10037000306F20F00400306741F28938A06860B126
:1003800000F08AF88146306F810713D400F084F8BA
:10039000A0EB09004045F6D345E700F07DF8814623
:1003A000306F810706D500F077F8A0EB09004045D3
:1003B000F6D338E71DB1306C20F080503064A0696E
:1003C00000285ED0B16801F00C0108293AD002285B
:1003D0002AD10020386600F05FF8054630688101B8
:1003E00005D500F059F8401B0228F7D91BE7E06952
:1003F000216A626A0843A16A490840EA8210491EDC
:1004000040EA0140E16A40EA01607060012038661C
:1004100000F042F804463068810132D400F03CF824
:10042000001B0228F7D9FEE60020386600F034F8F9
:1004300004463068810124D500F02EF8001B022804
:10044000F7D9F0E601281AD07068E26900F480015B
:10045000914202BF00F03F01226A91420FD147F65C
:10046000C071626A0140914202BF00F44031A26A49
:10047000914202BF00F07060E16A884201D0012021
:1004800000E00020BDE8F28300380240000047424F
:10049000800E47420070004001484068704700BF2E
:1004A000000000202DE9F84F0D4600266E496F4AE6
:1004B0000F23044601202F68B04000EA070880455A
:1004C00040F0C1804FEA460C032707FA0CF76FEAA9
:1004D000070E6F68012F18BF022F03D0112F18BF0E
:1004E000122F12D1A768D5F80C900EEA070709FA67
:1004F0000CF949EA0707A760676827EA00006F68F8
:10050000C7F30017B74038436060E068AF680EEA91
:10051000000007FA0CF73843E060B0006F68022F64
:1005200018BF122F12D1F70804EB870700F01C093F
:10053000D7F820A003FA09FB2AEA0B0AD5F810B075
:100540000BFA09F949EA0A09C7F8209027680EEA68
:10055000070E2F7907F0030707FA0CF747EA0E0793
:1005600027606F68FF006ED5002700974FEA960C52
:10057000176847F48047176000F00C00176807F40D
:100580008047009703FA00FE009F394F57F82C7000
:1005900027EA0E0E374FBC4208BF002722D0364F45
:1005A000BC4208BF01271DD0344FBC4208BF022700
:1005B00018D0334FBC4208BF032713D0314FBC4281
:1005C00008BF04270ED0304FBC4208BF052709D012
:1005D0002E4FBC4208BF062704D02D4FBC420CBF93
:1005E0000727082707FA00F0214F40EA0E0047F8D6
:1005F0002C006FEA08000F6800EA070C6F68FF0321
:1006000048BF48EA0C0CC1F800C04F6800EA070C6C
:100610006F68BF0348BF48EA0C0CC1F804C08F687C
:1006200000EA070C6F68FF0248BF48EA0C0CC1F8EB
:1006300008C0CF6800EA070C6868800248BF48EA33
:100640000C0CC1F80CC0761C0F2E7FF633AFBDE842
:10065000F18F0069084018BF0120C0B2704702B98D
:100660000904816170470000003C014044380240A9
:100670000838014000000240000402400008024027
:10068000000C02400010024000140240001802401A
:10069000001C02402DE9F04104000F4654D0404EAA
:1006A000306800F00F00B84202D200F073F84BD16E
:1006B00020683C4D810712D5400703D5A96841F455
:1006C000E051A9602078010703D5A86840F4604094
:1006D000A860A968A06821F0F0010143A960217811
:1006E000C80729D56068012802D129688A0305E076
:1006F000022818BF032803D129688A0103D423E004
:1007000029688A0720D5A968890840EA8100A8607D
:10071000FFF7C2FE8046A868616800F00C00B0EBED
:10072000810F09D0FFF7B8FEA0EB080041F2893134
:100730008842F0D303202BE0306800F00F0087429E
:1007400004D200F027F801D0012021E020784107F1
:1007500005D5AA68E06822F4E0520243AA60217835
:10076000080706D5A968206921F4604141EAC00163
:10077000A96000F01FF8AA680B490C4BC2F30312E2
:10078000895CC84018600A48006800F043F80020FF
:10079000BDE8F0813770316801F00F01B942704750
:1007A000003C024000380240840D00080C0000208C
:1007B0000800002030B5144C606800F00C000428DC
:1007C00002D0082802D01DE0104830BD2268206801
:1007D0000023410202F03F0204D525680B49C5F30E
:1007E000881003E020680A49C0F38810A1FB0001CB
:1007F00000F030F82168C1F30141491C4900B0FB09
:10080000F1F030BD024830BD0438024000127A00D9
:100810000024F40038B50D4D0D4B2A7804464FF4F2
:100820007A711868B1FBF2F2B0FBF2F000F0E3F875
:1008300050B9102C08D2002221464FF0FF3000F0B2
:10084000BDF8AC60002032BD012032BD00000020A8
:100850000C000020D3BBD9B1B2F5803F5BD2022A95
:100860001ED98C46B1FBF2F102FB11C31B0443EA13
:100870001043B3FBF2FC02FB1C3380B240EA03439B
:10088000B3FBF2F002FB103240EA0C400023704749
:10089000022A05D98446B0FBF2F002FB10C2704771
:1008A0004AB105D100F0010249085FEA3000704703
:1008B00000220023704700F0BDB80B0002000021A9
:1008C00000207047F7D3002200237047904271EB5D
:1008D000030CF2D370B5B1FA81F4B3FA83F52C1B93
:1008E000A340C4F1200532FA05F63343A2405FF07D
:1008F0000046E64002E05B085FEA3202841A71EBD0
:10090000030524BF204629467641F4D302000B009C
:100910003000002170BD70B5B1FA81F4B2FA82F5F1
:10092000C4F120046419B4F12006DAD3B2405FF0B8
:100930000044F440002502E052085FEA3303C61A7F
:1009400071EB020E24BF3046714664416D41F3D312
:1009500002000B002000290070BD30B40EE00268D8
:10096000436802440830DC0744BFA9F10104E318DE
:1009700052F8045B43F8045B091FF9D150F8041BDB
:100980000029ECD130BC70470901020002D4244890
:1009900081547047234B02F00F021A4402F8041CE2
:1009A0007047214B19684FF6FF020002114000F416
:1009B000E06008431D4908431860704770B51A4B42
:1009C0001C68C4F302230124C3F10705052D2EBFC3
:1009D0000F2504FA05F56D1E1E1D072E34BF0023DA
:1009E000DB1E2940994004FA03F3BDE870405B1E0A
:1009F0001A401143C8E710B5401EB0F1807F01D303
:100A0000012010BD0A4C60600F214FF0FF30FFF74E
:100A1000BBFF0021A16007202060002010BD000066
:100A200000E400E018ED00E00CED00E00000FA0545
:100A300010E000E07047000070B592B068463E4993
:100A40003E4E482200F082F800F08CF800F028F8C2
:100A500000F0A2F8002400254FF480513848FFF739
:100A6000F8FDC8B134B1684600EB8501002451F8A7
:100A7000041C0CE05DF82510012289B23046FFF716
:100A8000EEFD01246D1C132D06D3119900250022C3
:100A900089B23046FFF7E3FDFA2000F0D3F8DBE738
:100AA00080B592B03022002106A800F0DFF81422B1
:100AB000002101A800F0DAF8002000904FF4803304
:100AC0002048016841F0805101600021006800F079
:100AD0008050009000981C480091026842F48042C7
:100AE00002600122006800F48040009006A800998E
:100AF000069202214FF480020C910D920421A8224B
:100B00000E910F9202210422079310911192FFF788
:100B10003BFB02210291002203920F204FF4A051CF
:100B2000019004914FF480520592052101A8FFF72E
:100B3000B1FD13B000BD0000200D00080008024008
:100B40000004024040380240007000404AB10000FA
:100B500011F8013B521E00F8013B1CBF11F8013B8C
:100B6000F8E7704780B50B48016841F400710160F7
:100B7000026842F480620260016841F480710160A1
:100B80000320FFF70EFF0020FFF744FE00F078F887
:100B9000002002BD003C024010B586B014220021A6
:100BA00001A800F063F800212348244C009102685A
:100BB00042F0040202600022016801F00401009189
:100BC00000990092036843F080030360016801F01C
:100BD0008001009100990092036843F002030360D2
:100BE000016801F002010091009900924FF47F41E9
:100BF000036843F001030360006800F00100009007
:100C000000982046FFF72BFD4FF47F410191012210
:100C1000002103910491029201A92046FFF742FCB2
:100C20004FF48050002101900291039101A90448E2
:100C3000FFF738FC06B010BD303802400008024013
:100C40000004024038B50446FFF726FC14F1010FFA
:100C5000054602D0044801786418FFF71DFC401BCC
:100C6000A042FAD331BD00BF0000002010B50446F9
:100C700010460A460146204600F01EF8204610BDE8
:100C800081B00020009000220A48416841F4804170
:100C90004160416801F4804100910099009203682D
:100CA00043F080530360006800F08050009000988B
:100CB00001B070474038024062F30F2262F31F42D6
:100CC000401810F0030308D0C91A1FD3DB0748BF30
:100CD00000F8012D28BF20F8022D130030B414466F
:100CE0001546103928BF20E93C00FAD8490728BF2B
:100CF00020E90C0048BF40F8042D890028BF20F8E7
:100D0000022D48BF00F8012D30BC7047C91818BF2C
:100D100000F8012DCB0728BF00F8012D7047000017
:100D2000003F000000060000005B0000004F0000D4
:100D300000660000006D0000007C0000000700005D
:100D4000007F00000067000000770000007C0000CA
:100D500000390000005E0000007900000071000012
:100D600000080000008000000448054A016841F4C2
:100D7000700101604FF000601060704788ED00E086
:100D800008ED00E000000000000000000102030484
:100D90000607080910B5074979441831064C7C4408
:100DA000163404E00A68081D114488470146A14230
:100DB000F8D110BD2C0000003C0000004EF6885118
:100DC000CEF20001086840F470000860BFF34F8F56
:100DD000BFF36F8F4FF00070E1EE100A7047000014
:100DE0007BFBFFFF100000008800000000000020D7
:100DF0000000000000F00DF8002801D0FFF7CAFF46
:100E0000AFF300800020AFF30080FFF715FE00F085
:100E100002F80120704700F001B80000074638468C
:100E200000F002F8FBE7000080B5AFF30080024A53
:100E300011001820ABBEFBE7260002007047FEE75A
:100E4000FEE7FEE7FEE770477047704700F000B826
:100E50000248416802788A1842607047000000200A
:100E60000148804701480047690D0008810E0008CD
:100E70000100000000000000100000000024F40049
:100E8000AFF30080FFF79AFFFFF7B4FFFFF7FEBF55
:100E9000FFF7FEBFFFF7FEBFFFF7FEBFFFF7FEBF86
:100EA000FFF7FEBFFFF7FEBFFFF7FEBFFFF7FEBF76
:100EB000FFF7FEBFFFF7FEBFFFF7FEBFFFF7FEBF66
:100EC000FFF7FEBFFFF7FEBFFFF7FEBFFFF7FEBF56
:100ED000FFF7FEBFFFF7FEBFFFF7FEBFFFF7FEBF46
:100EE000FFF7FEBFFFF7FEBFFFF7FEBFFFF7FEBF36
:100EF000FFF7FEBFFFF7FEBFFFF7FEBFFFF7FEBF26
:100F0000FFF7FEBFFFF7FEBFFFF7FEBFFFF7FEBF15
:100F1000FFF7FEBFFFF7FEBFFFF7FEBFFFF7FEBF05
:100F2000FFF7FEBFFFF7FEBFFFF7FEBFFFF7FEBFF5
:100F3000FFF7FEBFFFF7FEBFFFF7FEBFFFF7FEBFE5
:100F4000FFF7FEBFFFF7FEBFFFF7FEBFFFF7FEBFD5
:100F5000FFF7FEBFFFF7FEBFFFF7FEBFFFF7FEBFC5
:100F6000FFF7FEBFFFF7FEBFFFF7FEBFFFF7FEBFB5
:100F7000FFF7FEBFFFF7FEBFFFF7FEBFFFF7FEBFA5
:100F8000FFF7FEBFFFF7FEBFFFF7FEBFFFF7FEBF95
:100F9000FFF7FEBFFFF7FEBFFFF7FEBFFFF7FEBF85
:100FA000FFF7FEBFFFF7FEBFFFF7FEBFFFF7FEBF75
:100FB000FFF7FEBFFFF7FEBFFFF7FEBFFFF7FEBF65
:040FC000FFF7FEBF7A
:0400000508000E8160
:00000001FF
