:020000040800F2
:1000000048050020E5150008F9140008FB14000855
:10001000FD140008FF14000801150008000000008E
:1000200000000000000000000000000003150008B0
:100030000515000800000000071500080915000854
:10004000091600080D1600081116000815160008FC
:10005000191600081D1600082116000825160008AC
:10006000291600082D16000831160008351600085C
:10007000391600083D16000841160008451600080C
:10008000491600084D1600085116000855160008BC
:10009000591600085D16000861160008651600086C
:1000A000691600086D16000871160008751600081C
:1000B000791600087D1600088116000885160008CC
:1000C000891600088D16000891160008951600087C
:1000D000991600089D160008A1160008A51600082C
:1000E000A9160008AD160008B1160008B5160008DC
:1000F000B9160008BD160008C1160008C51600088C
:10010000C9160008CD160008D1160008D51600083B
:10011000D9160008DD160008E1160008E5160008EB
:10012000E9160008ED1600080D150008F116000884
:10013000F51600080000000000000000F916000895
:10014000FD16000801170008051700080917000828
:100150000D170008111700081315000815170008DF
:10016000191700081D170008211700082517000897
:10017000291700082D1700080000000000000000EB
:10018000311700083517000870B5044600F0ACF9C7
:1001900006460CB9012070BD04F13405002028701A
:1001A00002216970206802685208520002602268C9
:1001B0001068C1070AD500F097F9801B0628F6D30E
:1001C0002020286203216970032070BD1368DFF8C6
:1001D000900261680340A0680B43E1680343206913
:1001E0000B4361690343A0690B43E1690343206A40
:1001F0000B43616A0343042903D1E16A206B014385
:100200000B43136023685A69606AD208042840EAE5
:10021000C2020AD1A66AE16A324331B1A06988B943
:10022000002E18BF022E1FD016D35A61204600F0B0
:1002300043F9A96A3F228A40826000202862012196
:10024000697070BDB0F5005F0AD1032EEDD8DFE80C
:1002500006F00D0B0D03E8E7B1F1C07FE5D105E035
:10026000022E03D9F61EE0D1C801DED54021296255
:100270000120687070BDF8B5044604F1340600250D
:100280003078776A012801D10220F2BD0120307058
:10029000707801281CD1022070703562204600F071
:1002A000FBF8B06A3F2101FA00F0B86020680168ED
:1002B00041F016010160F06820B12068016841F04A
:1002C000080101602068016841F00101016001E05E
:1002D000357002252846F2BD2DE9FC41044604F1A3
:1002E000340600205F4900904FF41650776A0A6880
:1002F0003D68B2FBF0F8B06A082100F0B6F80ED005
:100300002068026853070AD5026822F004020260DE
:10031000B06A8140B960316A41F001013162B06A6E
:1003200025FA00F1CA070BD521684A69110607D5DD
:10033000012202FA00F0B860306A40F00200306238
:10034000042100F091F808D021680A68930704D5C9
:10035000B860306A40F004003062102100F084F888
:100360001BD021680A68130717D5B8602068016898
:100370004A0307D5006801030BD5716969B12046AE
:1003800088470AE00168CA0503D4016821F0080122
:100390000160F16809B120468847B06A202100F069
:1003A00064F83FD021680A68D3063BD5B86020685E
:1003B000717805291CD1026822F01602026000F053
:1003C00058F8F068002804BF7069002801D000F0D8
:1003D0005CF83F22B06A8240BA600021317001228D
:1003E0007270F169002939D02046BDE8FC41084708
:1003F00001684A0307D5006801030FD4316989B148
:10040000204688470EE00168CA0507D4016821F03C
:10041000100101600020307001227270B16809B1D2
:1004200020468847306AC8B1306AC10710D5052018
:10043000707000F024F80098401C8045009003D3B1
:1004400020680168CA07F6D400203070012171705D
:10045000B16919B12046BDE8FC410847BDE8F38108
:100460003F8010F040000020B06A01FA00F0054221
:1004700070472068416921F0800141617047206820
:10048000016849084900016070472068016821F04F
:10049000080101607047000030B50468256825F444
:1004A0008025256063608068402802D1A260E160F9
:1004B00030BDA160E26030BD30B5016808A401F034
:1004C000FF02103A1823B2FBF3F2890A8902A55CF5
:1004D000C565042A28BF091D8165806D30BD0000F7
:1004E000000610160006101601484068704700BF4D
:1004F0003400002038B5040001D1012032BD00F0E5
:1005000021F808B900F022F800F012F800F023F802
:10051000FFE7416100F001F832BD2068C16841F495
:100520000051C1600020686020216970A970704787
:10053000242068702068C16821F40051C160204601
:1005400000F010B904F1380568787047002129706F
:10055000204600F090B92068016921F490410161C2
:100560002068416921F02A01704770B5044604F102
:10057000380513466878202831D109B1180001D117
:10058000012070BD2878012829D00120287021621F
:10059000A384E3840020686021226A700FF2D900EE
:1005A000226BD063226B0FF2FD001064226B0FF2FE
:1005B0003D10D0640020266B30652068021D206B42
:1005C000FFF759FE21686FF04000086000222A7092
:1005D0002068416941F080014161002070BD022026
:1005E00070BD7CB5044604F138051346A878202870
:1005F00040D109B1180001D1012076BD2878012829
:1006000038D001202870A162A38500226A602220D0
:10061000A8700026606B0FF29502C263606B0FF248
:10062000C5020264606B0FF2C502C2640A46606BC9
:1006300006652668606B311DFFF71DFE00210091E5
:100640002268136800932068416800910021009897
:1006500029702268D06840F48070D06020684169B9
:1006600041F0010141612068416941F0400141616F
:10067000002076BD022076BD816B00680268D3053C
:1006800044BF084600F070B90020C8840868426979
:1006900022F0800242610868C16841F04001C160F7
:1006A00070470000806B00F060B90000816B00684B
:1006B0000268D30513D40020C8850868C26822F4F4
:1006C0008072C2600868426952085200426108683C
:1006D000426922F040024261202081F83A00084637
:1006E00000F044B9806B00F042B9000038B5846B6B
:1006F0002068406904F139052978212906D10106CD
:1007000004D50022E284204600F015F821684869EB
:100710006978222906D1400604D50021E1852046CA
:1007200000F012F8E06B40F01000E0632046BDE8F6
:10073000324000F01DB90168CA6822F0C002CA60E8
:10074000202180F8391070470168CA6822F490723D
:10075000CA6001684A69520852004A61202180F843
:100760003A107047D0B50646642732681169F068C0
:1007700021F44051014311611924D3682C48B16818
:10078000034030690B4371690343F0690B43034332
:10079000D3605169B06921F4407101435161F3693B
:1007A00024482549B3F5004F1FD18A4218BF824221
:1007B00002D100F089F901E000F07EF90246A4FBC5
:1007C00002017268D30F520000F0C6F900F036F84B
:1007D000FF0032376420B7FBF0F0420002F4F872F9
:1007E00002EB011200F007001DE08A4218BF8242AE
:1007F00002D100F069F901E000F05EF90246A4FBC5
:1008000002017268930F920000F0A6F900F016F84A
:100810003F0132376420B7FBF0F000F0F00202EB4A
:10082000011200F00F00316880188860D0BD000010
:10083000F369FFFF00140140001001406421B0FB88
:10084000F1F107FB1107704780B54148414901604C
:100850004FF4E13200230C2142608360C3600361E6
:1008600041618361C361FFF745FE18B1BDE80140F6
:1008700000F062BA01BD2DE9F04186B004461422B1
:10088000002101A800F059FA2168324881425BD169
:1008900000223148314D324E00924FF000674169DD
:1008A00041F0100141614FF48068416901F010018D
:1008B0000091009900924FF4C061036843F0010376
:1008C00003600222006800F00100009000982548B3
:1008D00001910292002103910322072105910492C4
:1008E00001A900F035FA0020A860E8606861A861FD
:1008F000E861286268622E606F60C5F81080284643
:10090000FFF742FC08B100F017FA06F1780005F194
:100910008406402165632866A9660020E86668674A
:10092000A867E867C5F880003060AC636F66C5F8FB
:10093000708005F16000FFF727FC08B100F0FCF9BA
:1009400005F160002063746106B0BDE8F08100002D
:100950000401002000100140303802404400002013
:100960004064024000000240704770477047704783
:10097000704730B4002513E050F8042BD30744BF70
:10098000A9F101039A18091F042942F8045BFAD25D
:1009900013468C0744BF15809B1CC90748BF1D70B8
:1009A00050F8041B0029E7D130BC70472DE9F04115
:1009B00004000F4654D0494E306800F00F00B84292
:1009C00002D200F073F84BD12068454D810712D553
:1009D000400703D5A96841F4E051A96020780107D8
:1009E00003D5A86840F46040A860A968A06821F019
:1009F000F0010143A9602178C80729D56068012862
:100A000002D129688A0305E0022818BF032803D110
:100A100029688A0103D423E029688A0720D5A968B8
:100A2000890840EA8100A860FFF75EFD8046A8685B
:100A3000616800F00C00B0EB810F09D0FFF754FDA6
:100A4000A0EB080041F289318842F0D303202BE06B
:100A5000306800F00F00874204D200F027F801D080
:100A6000012021E02078410705D5AA68E06822F43A
:100A7000E0520243AA602178080706D5A9682069D8
:100A800021F4604141EAC001A96000F035F8AA688C
:100A90001449154BC2F30312895CC840186013480F
:100AA000006800F043FA0020BDE8F081377031683B
:100AB00001F00F01B94270470B480D4A00681368F6
:100AC0000C49C3F3822206E00748094A006813680C
:100AD0000849C3F34232895CC8407047003C024079
:100AE00000380240E8140008400000203C000020CC
:100AF000083802400016000830B5144C606800F059
:100B00000C00042802D0082802D01DE0104830BD97
:100B1000226820680023410202F03F0204D52568C4
:100B20000B49C5F3881003E020680A49C0F3881018
:100B3000A1FB000100F010F82168C1F30141491C3C
:100B40004900B0FBF1F030BD024830BD043802402E
:100B500000127A000024F400D3BBD9B1B2F5803F73
:100B60005BD2022A1ED98C46B1FBF2F102FB11C303
:100B70001B0443EA1043B3FBF2FC02FB1C3380B2BC
:100B800040EA0343B3FBF2F002FB103240EA0C40B0
:100B900000237047022A05D98446B0FBF2F002FB1D
:100BA00010C270474AB105D100F0010249085FEA5E
:100BB0003000704700220023704700F0D7B90B00C7
:100BC0000200002100207047F7D300220023704765
:100BD000904271EB030CF2D370B5B1FA81F4B3FA21
:100BE00083F52C1BA340C4F1200532FA05F63343EC
:100BF000A2405FF00046E64002E05B085FEA320296
:100C0000841A71EB030524BF204629467641F4D3AC
:100C100002000B003000002170BD70B5B1FA81F404
:100C2000B2FA82F5C4F120046419B4F12006DAD3D3
:100C3000B2405FF00044F440002502E052085FEA51
:100C40003303C61A71EB020E24BF3046714664416D
:100C50006D41F3D302000B002000290070BD00009D
:100C600038B500F085F900F014F800F09BF900F0B9
:100C7000B5F9FFF7E9FD2C4C2C4D172205F11C01AD
:100C80002046FFF7AEFC1A2229462046FFF76DFCEE
:100C9000FEE780B592B03022002106A800F04DF8A2
:100CA0001422002101A800F048F8002000904FF421
:100CB00080331F48016841F08051016000210068C5
:100CC00000F08050009000981A480091026842F4A9
:100CD000804202600122006800F48040009006A873
:100CE0000099069202214FF480020C910D9204218A
:100CF000A8220E910F9202210422079310911192C3
:100D000000F08EF902210291002203920F204FF48D
:100D1000A051019004914FF480520592052101A841
:100D2000FFF744FE13B000BD0401002000000020C6
:100D30004038024000700040704710B5044610462D
:100D40000A460146204600F0F3FA204610BD000096
:100D50002DE9F84F0D46002669496A4A0F230446DB
:100D600001202F68B04000EA0708804540F0C180AC
:100D70004FEA460C032707FA0CF76FEA070E6F6875
:100D8000012F18BF022F03D0112F18BF122F12D11D
:100D9000A768D5F80C900EEA070709FA0CF949EA9A
:100DA0000707A760676827EA00006F68C7F30017A6
:100DB000B74038436060E068AF680EEA000007FAA9
:100DC0000CF73843E060B0006F68022F18BF122F95
:100DD00012D1F70804EB870700F01C09D7F820A010
:100DE00003FA09FB2AEA0B0AD5F810B00BFA09F945
:100DF00049EA0A09C7F8209027680EEA070E2F79FA
:100E000007F0030707FA0CF747EA0E0727606F6839
:100E1000FF006ED5002700974FEA960C176847F43D
:100E20008047176000F00C00176807F480470097B0
:100E300003FA00FE009F344F57F82C7027EA0E0E7D
:100E4000324FBC4208BF002722D0314FBC4208BFFE
:100E500001271DD02F4FBC4208BF022718D02E4FAC
:100E6000BC4208BF032713D02C4FBC4208BF042745
:100E70000ED02B4FBC4208BF052709D0294FBC42DA
:100E800008BF062704D0284FBC420CBF07270827FD
:100E900007FA00F01C4F40EA0E0047F82C006FEAFA
:100EA00008000F6800EA070C6F68FF0348BF48EAB4
:100EB0000C0CC1F800C04F6800EA070C6F68BF0354
:100EC00048BF48EA0C0CC1F804C08F6800EA070C60
:100ED0006F68FF0248BF48EA0C0CC1F808C0CF6831
:100EE00000EA070C6868800248BF48EA0C0CC1F8A9
:100EF0000CC0761C0F2E7FF633AFBDE8F18F0000DB
:100F0000003C0140443802400838014000000240E3
:100F10000004024000080240000C024000100240A1
:100F20000014024000180240001C024038B50D4D6C
:100F30000D4B2A7804464FF47A711868B1FBF2F22F
:100F4000B0FBF2F000F06AFA50B9102C08D200227F
:100F500021464FF0FF3000F039FAAC60002032BD7E
:100F6000012032BD34000020400000207047000006
:100F700080B50B48016841F400710160026842F4D9
:100F800080620260016841F480710160032000F01A
:100F900010FA0020FFF7CAFF00F060FA002002BD3F
:100FA000003C024081B0002000900B48016841F0F5
:100FB00080010160026802F0800200920022009924
:100FC0000092036843F001030360006800F0010031
:100FD0000090009801B070473038024080B5002082
:100FE000009000220D48016841F480010160002159
:100FF000006800F48000009000983A2000F0E6F9C4
:101000003A2000F000FA00220021462000F0DEF92C
:10101000BDE80240462000F0F6B900BF303802407B
:101020002DE9F843040016D02078DFF8F462C107F8
:1010300013D5B06800F00C00042807D0B06800F0A9
:101040000C0008283DD1706841023AD53068810310
:1010500003D56068002800F05E812078B14F8107D9
:1010600019D5B06810F00C0F07D0B06800F00C0074
:1010700008285BD17068410258D43068810703D5D5
:10108000E068012840F047813168206921F0F801CB
:1010900041EAC00131602178080779D56069A24929
:1010A000002868D001220A60FFF71EFA0546706F1B
:1010B00081076DD4FFF718FA401B0228F7D90320E7
:1010C0002CE16068B0F5803F04D1306840F4803096
:1010D000306011E0B0F5A02F306806D140F48020D8
:1010E0003060316841F4803105E020F480303060B8
:1010F000316821F480213160606858B1FFF7F4F95C
:10110000054630688103A8D4FFF7EEF9401B652837
:10111000F7D3D4E7FFF7E8F90546306881039CD59B
:10112000FFF7E2F9401B6528F7D3C8E7E068A8B1EC
:1011300001213960FFF7D8F905463068810705D4E9
:10114000FFF7D2F9401B0228F7D9B8E730682169C8
:1011500020F0F80040EAC10030609CE73860FFF7FB
:10116000C3F905463168880795D5FFF7BDF9401BDF
:101170000228F7D9A3E70860FFF7B6F90546706FB4
:10118000810705D5FFF7B0F9401B0228F7D996E78C
:10119000207841075FD5306C0025C1000AD4009546
:1011A0000125316C41F080513164306C00F0805089
:1011B00000900098DFF87481D8F80000C10513D4BE
:1011C000D8F8000040F48070C8F80000FFF78CF9F0
:1011D0008146D8F80000C10506D4FFF785F9A0EBD9
:1011E00009000228F5D96AE7A068012805D005287A
:1011F000306F06D140F004003067306F40F00100DE
:1012000005E0400840003067306F20F00400306790
:1012100041F28938A06860B1FFF766F98146306F06
:10122000810713D4FFF760F9A0EB09004045F6D31E
:1012300045E7FFF759F98146306F810706D5FFF77B
:1012400053F9A0EB09004045F6D338E71DB1306CE7
:1012500020F080503064A06900285ED0B16801F0B1
:101260000C0108293AD002282AD100203866FFF75D
:101270003BF905463068810105D5FFF735F9401B7C
:101280000228F7D91BE7E069216A626A0843A16A6C
:10129000490840EA8210491E40EA0140E16A40EAFA
:1012A0000160706001203866FFF71EF9044630685F
:1012B000810132D4FFF718F9001B0228F7D9FEE6A6
:1012C00000203866FFF710F904463068810124D504
:1012D000FFF70AF9001B0228F7D9F0E601281AD017
:1012E0007068E26900F48001914202BF00F03F01A2
:1012F000226A91420FD147F6C071626A0140914261
:1013000002BF00F44031A26A914202BF00F0706057
:10131000E16A884201D0012000E00020BDE8F283AC
:101320000038024000004742800E474200700040F3
:1013300062F30F2262F31F42401810F0030308D03B
:10134000C91A1FD3DB0748BF00F8012D28BF20F8BA
:10135000022D130030B414461546103928BF20E979
:101360003C00FAD8490728BF20E90C0048BF40F8E4
:10137000042D890028BF20F8022D48BF00F8012D58
:1013800030BC7047C91818BF00F8012DCB0728BF23
:1013900000F8012D704700000901020002D429481D
:1013A00081547047284B02F00F021A4402F8041CC3
:1013B0007047264B19684FF6FF020002114000F4F7
:1013C000E0600843224908431860704770B51F4B1E
:1013D0001C68C4F302230124C3F10705052D2EBFA9
:1013E0000F2504FA05F56D1E1E1D072E34BF0023C0
:1013F000DB1E2940994004FA03F3BDE870405B1EF0
:101400001A401143C8E7010007D4012200F01F0170
:10141000104B8A40400943F82020704710B5401E09
:10142000B0F1807F01D3012010BD0B4C60600F2113
:101430004FF0FF30FFF7B0FF0021A16007202060D0
:10144000002010BD00E400E018ED00E00CED00E02D
:101450000000FA0500E100E010E000E081B00020AB
:10146000009000220A48416841F48041416041688F
:1014700001F48041009100990092036843F0805389
:101480000360006800F080500090009801B0704741
:101490004038024030B5016884684218416802EB68
:1014A0005103C90703D54C4401E0491C05D19A42B8
:1014B0000AD012F9011B12F8015B002904F8015B44
:1014C000F3D4491EF7D5F2E70C3030BD0448054A85
:1014D000016841F4700101604FF0006010607047D6
:1014E00088ED00E008ED00E00000000000000000D2
:1014F00001020304060708097047FEE7FEE7FEE75E
:10150000FEE770477047704700F00AB80248FEF7E0
:10151000E3BE0248FEF7E0BE44000020A400002025
:101520000248416802788A184260704734000020FF
:1015300010B5074979441831064C7C44163404E050
:101540000A68081D114488470146A142F8D110BD20
:101550002C000000480000004EF68851CEF2000139
:10156000086840F470000860BFF34F8FBFF36F8FBF
:101570004FF00070E1EE100A70470000F7F3FFFF34
:1015800000010000440000200000000009FFFFFFF0
:10159000A8010000500000000000002000F00DF83D
:1015A000002801D0FFF7C4FFAFF300800020AFF3A5
:1015B0000080FFF755FB00F002F80120704700F0B3
:1015C00001B800000746384600F002F8FBE70000CB
:1015D00080B5AFF30080024A11001820ABBEFBE7D4
:1015E000260002000148804701480047CD1400084A
:1015F000F5150008AFF30080FFF7AEFFFFF7CEFF51
:101600000000000001020304FFF7FEBFFFF7FEBF6A
:10161000FFF7FEBFFFF7FEBFFFF7FEBFFFF7FEBFFE
:10162000FFF7FEBFFFF7FEBFFFF7FEBFFFF7FEBFEE
:10163000FFF7FEBFFFF7FEBFFFF7FEBFFFF7FEBFDE
:10164000FFF7FEBFFFF7FEBFFFF7FEBFFFF7FEBFCE
:10165000FFF7FEBFFFF7FEBFFFF7FEBFFFF7FEBFBE
:10166000FFF7FEBFFFF7FEBFFFF7FEBFFFF7FEBFAE
:10167000FFF7FEBFFFF7FEBFFFF7FEBFFFF7FEBF9E
:10168000FFF7FEBFFFF7FEBFFFF7FEBFFFF7FEBF8E
:10169000FFF7FEBFFFF7FEBFFFF7FEBFFFF7FEBF7E
:1016A000FFF7FEBFFFF7FEBFFFF7FEBFFFF7FEBF6E
:1016B000FFF7FEBFFFF7FEBFFFF7FEBFFFF7FEBF5E
:1016C000FFF7FEBFFFF7FEBFFFF7FEBFFFF7FEBF4E
:1016D000FFF7FEBFFFF7FEBFFFF7FEBFFFF7FEBF3E
:1016E000FFF7FEBFFFF7FEBFFFF7FEBFFFF7FEBF2E
:1016F000FFF7FEBFFFF7FEBFFFF7FEBFFFF7FEBF1E
:10170000FFF7FEBFFFF7FEBFFFF7FEBFFFF7FEBF0D
:10171000FFF7FEBFFFF7FEBFFFF7FEBFFFF7FEBFFD
:10172000FFF7FEBFFFF7FEBFFFF7FEBFFFF7FEBFED
:10173000FFF7FEBFFFF7FEBF18444E41204D657313
:1017400073616765202D2073746D333266343035D4
:101750000A0DE5000001F9000010FC000224F4006D
:04000005080015F5E5
:00000001FF
