:020000040800F2
:10000000C8080020DD5300089D5200089F520008D8
:10001000A1520008A3520008A552000800000000E9
:10002000000000000000000000000000A7520008CF
:10003000A952000800000000AB520008AD520008B1
:100040000154000805540008095400080D54000824
:100050001154000815540008195400081D540008D4
:100060002154000825540008295400082D54000884
:100070003154000835540008395400083D54000834
:100080004154000845540008495400084D540008E4
:100090005154000855540008595400085D54000894
:1000A0006154000865540008695400086D54000844
:1000B0007154000875540008795400087D540008F4
:1000C0008154000885540008895400088D540008A4
:1000D00091540008B1520008955400089954000842
:1000E000B75200089D540008A1540008A554000808
:1000F000A9540008AD540008B1540008B5540008D4
:10010000B9540008BD540008C1540008C554000883
:10011000C9540008CD540008D1540008D554000833
:10012000BF520008D9540008C5520008DD54000829
:10013000E15400080000000000000000E554000841
:10014000E9540008ED540008F1540008F554000883
:10015000F9540008FD540008CB520008015500086E
:1001600005550008095500080D55000811550008EF
:100170001555000819550008000000000000000097
:100180001D550008215500082DE9F14FB2B09946E0
:10019000924600230691CDE900333C9A0F930DF16E
:1001A0004A0114914A7011E0329E57462C4617F8C6
:1001B000011B0698B0470028069000F026810F9892
:1001C000401C641E0F90F2D13296AA449AF80000A7
:1001D000252808D10021002209910A920B910C9246
:1001E0000D910E920FE06A464FF0FF31504601F03C
:1001F0007FF8050002D10F9800F066BED4D5012526
:10020000E3E741F001011AF8010F2028F9D0232873
:100210000CD02B2804D02D2805D0302809D00BE095
:1002200041F00201EFE741F00401ECE741F0080181
:10023000E9E741F01001E6E72A280FD1D9F80020BC
:1002400052F8040BC9F800200028119003D5404251
:10025000119041F004010AF1010A14E01192DFF853
:10026000EC3B0AE01198984205DA00EB800402EBBF
:100270004402303A11920AF1010A9AF80020A2F1E0
:1002800030000A28EED39AF800002E2803D04FF051
:10029000FF32109229E01AF8010F2A2809D1D9F863
:1002A000000050F8042BC9F8000010920AF1010A6E
:1002B0001BE02D280CBF0AF1010A00200022109239
:1002C000DFF8882B0BE040B9109B934205DA03EB73
:1002D000830504EB4504303C10940AF1010A9AF8B6
:1002E0000040A4F130030A2BEDD3ADF848100FF60F
:1002F00060309AF8001001F005F808B11AF8010B07
:100300008DF84A009DF84A00682805D19AF8000047
:1003100068280CD1622106E06C2804BF9AF800001E
:100320006C2804D171218DF84A100AF1010A1FA826
:1003300008901AF801BBBBF125012DD01C3900F043
:100340006181091F022940F25D810E392AD0491FBF
:1003500000F0B284093900F05581891E00F048850B
:10036000491E00F0F484491E022940F24B81091F06
:1003700000F0ED84491F00F0BA80491E00F09C8413
:10038000491E65D0C91E21D0891E00F09584C91E62
:1003900000F0928400F04BBD25238DF87C300121C4
:1003A00009912AE06C208DF84A00D9F8000050F835
:1003B000042BC9F80000002A43D11499487800287A
:1003C0003DD04FF0FF340FF6902012E09DF84A0028
:1003D0006C28EAD0D9F8000050F8044BC9F80000A6
:1003E0000794D4B91499487898B14FF0FF340FF6B8
:1003F000842000F0A1FF201A07D132981FAA04A977
:1004000000F065FD00287FF5E1AE4FF0FF3000F011
:100410005BBD0FF67C200790EFE7109D002D04D503
:10042000204600F0A9FF044607E02A46204600F0D7
:10043000C3FF002814BF041B2C460A94DDE70FF607
:100440005422329804A900F0C8FD0028D5D5DCE775
:10045000D9F8001051F8040BC9F8001020F000047E
:10046000002121F0FF351FABCDE904450793DDE9FD
:10047000042308993C2413B90AB9109898B102F0E2
:100480000F053035641EEEB23A2EA8BF273512098B
:1004900042EA03721B090D5508BF002A03D00798D2
:1004A0000D19A842EBD308190790C4F13C0210982B
:1004B0000A92824209DABDF84810821A4FF6EF70AC
:1004C00001400C92ADF8481097E7002895D59DF8AB
:1004D000480000F0140010288FD1119B09990C9846
:1004E0005B1A1B1A9A1A002A87DD0C9285E7149969
:1004F000487820B14FF0FF340FF69C1079E79DF853
:100500004A00622862D0682819D06A2840D06C2836
:1005100006D071284DD074282DD07A281ED064E0E2
:10052000D9F8001051F8040BC9F8001020B94FF0A9
:10053000FF340FF67C105CE70F9901605DE7D9F896
:10054000001051F8040BC9F8001020B94FF0FF3427
:100550000FF65C104DE70F9901804EE7D9F80010B7
:1005600051F8040BC9F800100028E5D14FF0FF3412
:100570000FF63C103DE7D9F8001051F8040BC9F80C
:1005800000100028D8D14FF0FF340FF6241030E7C8
:10059000D9F8001051F8040BC9F8001020B94FF039
:1005A000FF340FF60C1024E70F9AD317C0E900238D
:1005B00023E7D9F8001051F8040BC9F800100028FF
:1005C000F2D14FF0FF340FF6E80012E7D9F800102F
:1005D00051F8040BC9F8001020B94FF0FF340FF6A2
:1005E000D00006E70F99017007E7D9F8001051F81D
:1005F000040BC9F8001000289ED14FF0FF340FF60D
:10060000B000F6E6D9F80020D21D22F00702C9F8A2
:100610000020D2E900010832C9F80020CDE9040128
:10062000C80F02D009982D210AE0BDF848008107C3
:1006300002D509982B2103E0C00705D50998202190
:100640001FAA1154401C09901FA809994BF02002C1
:100650004318DDE90401CDE92E01612A079315ACA9
:100660000BD01098002802D50620109005E001BF9D
:100670004BF02000672801211091DDE904014800BA
:100680004015401C0A4611D109030FD0ABF161059A
:1006900003201A2D0A9002D20FF6A03101E00FF6C6
:1006A000A0310322184600F0B3FEA6E650B91203AB
:1006B00008D1ABF1610503201A2D0A9016D30FF66D
:1006C0008831EEE7DDE90401CDE93001DDE93023D1
:1006D00023F00047B7F5801F22F000060DD200225C
:1006E000002F08BF002E029203D116E00FF65431FE
:1006F000D7E702AA00F0E0FE0FE0DFF8F00ADFF82B
:10070000F01A00EB17500290DDE930234FF0FF3074
:100710001940DFF8E07A10403943CDE904014BF08D
:10072000200061280DD1079830210170821CBBF197
:10073000610F07920CBF7821582141700998801CE5
:100740000990DDE9040120F0000231F0004308BF08
:10075000002A02D10026002571E14BF02008B8F1F3
:10076000610F40F0BE801098002847BF21210391FF
:10077000401C0390039FDDE92E017F1C0022002313
:10078000DDE9044500F0D0FE02998DF8542038BF11
:1007900085F00045091F002F02910DF155065DDD22
:1007A000DFF8541ACDE9302140F2FF732E93204632
:1007B00029460022002300F0CFFE4FD24800400D12
:1007C00000F11C0315D0002B13DD2E9883420ADBA9
:1007D000DDE9300121F0004005F000420243DDE98F
:1007E0003001114611E06FF31E5141EA03512046DA
:1007F0000BE024F0000035F0004108BF00280FBFD7
:1008000029461C22294600F0BFFE04460D4600F092
:1008100059FFFF1F002F804609DD00F071FF0246DF
:100820000B462046294600F07DFF04460D46F01D8C
:100830000721B8F1000F0CDD491E5EBF08F00F0262
:1008400000F8012D4FEA2818F3D502E0002200F845
:10085000012D491EFAD5C61D002FA8DC0DF155004B
:10086000361A03988642D8BF304600280DF1550449
:1008700030D4B04206DA0DF155010A5C082AA8BF4F
:100880000F2100DA0021024615AB134400E0401EA0
:1008900013F80159521E8D42F9D00F2904D10DF1E0
:1008A00055018B5C5B1C8B54002A04D50299091DF1
:1008B00015AC401C0291411E0CD46218ABF13A06F3
:1008C00013783033DDB23A2DA8BFF318491E02F871
:1008D0000139F5D51099002940F1AF80421E1092E0
:1008E000ABE00299DFF8142947F29750414391FB9E
:1008F000F2F2DDE92E45029225F00045D2F1070221
:1009000004DD2046294600F04DFC0BE05242002059
:10091000DFF8EC1800F046FC02460B46204629465C
:1009200000F072FF0446B8F1660F109806BF029FF0
:100930000A3706273F18142FC8BF142730208DF818
:1009400054000D460020DFF8BC18CDE92E010DF152
:100950005506002F33DD2046294601F079F801467F
:100960000A4606F1080304200A26B2FBF6F606EB57
:10097000860EA2EB4E02303203F8012C0A22B6FB9F
:10098000F2F202EB820EA6EB4E063036401E03F862
:10099000026DE9D1083F002F03F10806D9DD0846B2
:1009A00001F06AF802460B462046294600F0BAFEDE
:1009B000DDE92E2301F06EF804460D46CBE70DF17C
:1009C0005500361A0DF1550404E00298401E761EBB
:1009D0000290641C20783028F7D0B8F1660F02D15D
:1009E0000299491C04E0B8F1650F0CBF01210021F8
:1009F000109808188642B8BF701E00281DD4B04257
:100A000004DA215C3429C8BF392100DC30210246D8
:100A1000631E9D1800E0401E15F80169521E8E42AB
:100A2000F9D0392902D1A15C491CA154002A04D56E
:100A30000299491C1C46401C02910646029D00F08A
:100A40005BFC406A0778DDF8408030B2002802DCA9
:100A500001260FF2F8744BF02000662808BF6D1CC9
:100A600016D0672846D128B210F1040F48DB404564
:100A700046DA9DF848006D1C010703D430B24045AA
:100A8000B8BF804628B2B8EB000848BF4FF0000856
:100A90000FFA85FB07980A99BBF1000F00F3B280AB
:100AA0004A1C0A9230234354B8F1000F03DC9DF82E
:100AB0004800010704D50A98411C0A9107990F5470
:100AC00018EB0B0FB8BFC8F100052DB268420D90AE
:100AD000A84432B29045B8BF4646079B0A9836B242
:100AE0000B9632462146184400F092FCA8EB060013
:100AF0000E90CBE0BBF1610F17D14FF0700B19E0F6
:100B000030B2404504DA9DF848100A0758BF8046C5
:100B1000B8F1010848BF4FF00008BBF1670F14BFE0
:100B20004FF0450B4FF0650B04E0BBF1410F08BFE0
:100B30004FF0500B0A98411C0A91B8F1000F079929
:100B400014F8012B0A5403DC9DF8480001071AD55C
:100B50000A98411C0A91B8F1000F07990F5412DD51
:100B6000761E30B2804507980A9BB8BF464632B21F
:100B70002146184400F04CFC0A9936B271180A91CB
:100B8000A8EB06000D9007980A9908442AB2002A9B
:100B900080F800B003D42B224270811C04E02D2188
:100BA00041701546811C6D4200202EAA0A2409E0DE
:100BB0002B4693FBF4F505EB8506A3EB460302F801
:100BC000013B401C2DB2002DF2DC012806DC4BF06D
:100BD0002002652A04BF302201F8012B00282EAA2A
:100BE00008D1302001F8010B06E0401E135C3033C1
:100BF00001F8013B0028F8DC079A0A981044091A0A
:100C00000B9143E0084431B22AB2914219DA32B270
:100C1000214600F0FDFB0A9936B27118ABEB0606CF
:100C2000B8F1000F0A910D9603DC9DF84800020709
:100C300004D5079847540B99491C0B91CDF838807F
:100C400024E0214600F0E4FB0A98761B5844B8F1F2
:100C5000000F0A9003DC9DF848100A0703D5411CD9
:100C60000A9107990F5430B2804507980A9BB8BF84
:100C7000464632B204EB0B01184400F0C9FB0A9857
:100C800036B230180A90A8EB06000D909DF8480087
:100C900000F0140010287FF4B0AB099A0A990D985F
:100CA0008A180B9982180E988A1882181198824215
:100CB000BFF6A3AB821A18E49DF84A00622808D058
:100CC00068280ED06A2814D06C281FD0712810D044
:100CD0001CE0D9F8001051F8040BC9F80010C0B29C
:100CE0001AE0D9F8001051F8040BC9F8001080B2CE
:100CF00012E0D9F80020D21D22F00702C9F8002026
:100D0000D2E900010832C9F8002006E0D9F8001045
:100D100051F8040BC9F800100021CDE904019DF839
:100D2000480001075AD5DDE90423002B08BF002A3B
:100D300054D04BF02000782850D109981FA93022B8
:100D40000A54401C431C099301F800B046E09DF88A
:100D50004A00622808D068280ED06A2814D06C286F
:100D60001FD0712810D01CE0D9F8001051F8040BE6
:100D7000C9F8001040B21AE0D9F8001051F8040B7D
:100D8000C9F8001000B212E0D9F80020D21D22F0FC
:100D90000702C9F80020D2E900010832C9F8002092
:100DA00006E0D9F8001051F8040BC9F80010C1177B
:100DB000CDE90401002902D509982D210AE0BDF8EA
:100DC0004800810702D509982B2103E0C00705D50B
:100DD000099820211FAA1154401C09901FA80999A5
:100DE0000144079104A8594600F057F9FFF705BBE5
:100DF0009DF84A006C280BD001210991D9F8000018
:100E000050F8041BC9F800008DF87C10FFF7F5BA04
:100E1000D9F8000050F8041BC9F8000015914FF0F4
:100E2000FF3210920021169115AAFFF70ABB252167
:100E30000122BBF1000F8DF87C1009923FF4DDAA6E
:100E40008DF87DB00221FFF7ABBA0000CBCCCC0C03
:100E5000686A6C747A4C00007072696E74665F73B5
:100E60003A2062616420256C7320617267756D653C
:100E70006E7400007072696E74665F733A2062610E
:100E80006420257320617267756D656E74000000C3
:100E900000000000000000007072696E74665F73ED
:100EA0003A20256E20646973616C6C6F776564000D
:100EB0007072696E74663A2062616420256E2061EA
:100EC0007267756D656E740033B0BDE8F08F2DE903
:100ED000FC410F46064690467A6B7869396ABC6ACF
:100EE000121AB869521A796A121AF869521A121A41
:100EF00097F83800141B41070FD42020002C8DF8E0
:100F000000000ADD254601236A463946304600F0D6
:100F10007DF900285DD16D1EF5D17B6942463946C9
:100F2000304600F073F9002853D130208DF80000CE
:100F30003D6A002D09DD01236A463946304600F03E
:100F400065F9002845D16D1EF5D1BB69FA683946AF
:100F5000304600F05BF900283BD130208DF80000CE
:100F60007D6A002D08DD01236A463946304600F0CF
:100F70004DF970BB6D1EF6D1F868B969FB6942186E
:100F80003946304600F042F918BB30208DF8000099
:100F9000BD6A002D08DD01236A463946304600F05F
:100FA00035F9B0B96D1EF6D197F8380041070DD567
:100FB0002020002C8DF8000008DD01236A46394608
:100FC000304600F023F920B9641EF6D10020BDE8B8
:100FD000F6814FF0FF30BDE8F6812DE9F8470D4668
:100FE000A3B02F6B002F8246904648BF6FF000479A
:100FF00000F021FE696B401801AA0021C2E900112E
:10100000812828BF4FF0FF3044D289461EE0A74216
:1010100030DB6869201881280BD30021696303AA9B
:1010200029465046FFF753FF5FEA000922D400200B
:10103000686103AB6E6922466946981900F0E8F9C9
:10104000A6196E6158F8040BA0B13F1B002F11DDEB
:10105000D8F8001001AA684600F04CF90446002CAC
:1010600005D4D8F800000028D1D1641ECFD54FF0A8
:10107000FF390EE0B9F1000F504604D103AA29460A
:10108000FFF725FF8146B9F1000F02D1002068610A
:101090006863484624B0BDE8F0872DE9FC43074665
:1010A0006F293E6908BF082405D041F02000782848
:1010B00014BF0A2410243C25D7E90023642918BF53
:1010C00069299046994605D1002B03D5D8F100082F
:1010D00069EB4909B9F1000F08BFB8F1000F0CD155
:1010E000386B50B9082C39D197F83800010735D53D
:1010F00030203B2586F83B0030E08DF8001040465C
:1011000049462246E31700F09BFD3032D0B26D1EF7
:101110003A28019504DB9DF80000A0F151018A18DE
:101120007255404649462246E31700F089FD804645
:101130005FEA010908BFB8F1000F03D0F868711920
:101140008842DCD3082C09D197F83800010705D56F
:10115000705D302802D06D1E30207055C5F13C0204
:10116000BA617119F960386B824208DA821A3A6200
:101170004FF6EF70398F01403987BDE8F3830028BF
:101180000ED597F8380000F01400102808D17B6BBA
:101190007969386A5B1A1B1A9A1A002AC8BF3A6220
:1011A000BDE8F3832DE9D04306460F4614464FF0C1
:1011B0000008DFF8549012E0E00707D542464B469E
:1011C0003046394600F066FC06460F464046494622
:1011D00042464B4600F05EFC641080468946002C77
:1011E000EAD130463946BDE8D083000002FCFFFF5B
:1011F000FFFF0F800000E03F0000F07FA0860100AD
:101200000000F03F84D7974100002440F8B5054620
:101210000E4617461C4600205CB117F8011BB0684B
:10122000A847B06030B1F06A401CF0620020641E34
:10123000F3D1F2BD4FF0FF30F2BD00006E616E00E1
:101240004E414E00696E6600494E4600300030B493
:10125000002513E050F8042BD30744BFA9F1010384
:101260009A18091F042942F8045BFAD213468C0726
:1012700044BF15809B1CC90748BF1D7050F8041B54
:101280000029E7D130BC70471C48704770B45368E0
:10129000D41801E05B1C491E042B08DA00291FBF8B
:1012A000057804F8015B10F8016B002EF2D1536051
:1012B00070BC704738B514461D4661B1FFF7E6FFB4
:1012C00061686A6B204690476FF00102811A02D074
:1012D000491E01D001E003E005E00021616032BD5C
:1012E0006FF0010032BD4FF0FF3032BDDA6B1047B6
:1012F000024BDFE7014BF9E701487047640100202A
:101300002C010020C9B202788A421AB11CBF10F821
:10131000012FF9E718BF00207047B1F5807F02D395
:101320004FF0FF3070470170012070470078401E79
:101330008041C043C00F704780B500B906A0054981
:101340000B681BB122220021984701E000F0FBFC52
:10135000222002BDC0040020636F6E737472616945
:101360006E742068616E646C65723A2062616420FC
:101370006D6573736167650000F10103810704D037
:1013800010F8011B820781B1FAD10268A2F1013184
:10139000914311F0803104BF50F8042FF6E709BAE9
:1013A000B1FA81F100EBD100401CC01A704702680D
:1013B000531C036011707047C9B2830706D0521ED8
:1013C00022D310F8013B9942F7D11FE0083A13D31A
:1013D00002F1040241EA012141EA014150F8043BD3
:1013E000121F21BF4B40A3F1013C2CEA030C1CF05F
:1013F000803FF3D0C9B2001F083210F8013B521EE3
:1014000028BF91EA030FF8D818BF0120401E70478B
:1014100062B38B0708D0521E11F8013B00F8013B64
:1014200000F024808B07F6D1830740F0208000BFB6
:10143000103A07D330B4B1E83810103AA0E83810A9
:10144000F9D230BC530724BFB1E80810A0E8081057
:1014500044BF51F8043B40F8043BD20724BF31F8A5
:10146000022B20F8022B44BF0B7803707047121F29
:1014700017D35B0009D151F8043B20F8023B1B0C49
:10148000121F20F8023BF6D20BE051F8043B00F8A3
:10149000013B1B0A20F8023B1B0C121F00F8013B0A
:1014A000F3D238BF121D521E24BF11F8013B00F8C1
:1014B000013BF8D870472E0010B5144600F002F832
:1014C000226010BDC1F30A5343B14A0012F5001F58
:1014D00028D2A3F2FE32A1EB0251704750EA410C30
:1014E00020D001F0004C31EA0C01B1FA81F204BFC6
:1014F000B0FA80F3D2180B3AB2F120032CBF00FAF5
:1015000003F1914041EA0C013EBFC2F1200C20FAE8
:101510000CF319439040524240F2FD33D21A01EBD2
:1015200003517047002270474FF4001C1CEB410F21
:1015300094BF1CEB430F09E041EA030C50EA4C0C4A
:1015400052EA0C0C03D2994208BF9042704714BF74
:101550008B428242704743004FF4001C1CEB410F4A
:1015600094BF1CEB430F09E041EA030C50EA4C0C1A
:1015700052EA0C0C03D28B4208BF8242704714BF60
:101580009942904270470000124254D440F2FF7CCE
:101590001CEA11530FD0634531D09B1863453CBF03
:1015A00001EB0251704701F0004141EA0C5100206B
:1015B000AFF30080704750EA410320D001F0004CA7
:1015C00091EA0C011CD0B1FA81F30B3B9A420DD980
:1015D000D21A994051EA0C01C3F1200C20FA0CFCFC
:1015E00061449840531C40F2FF7CD7E7914041EAA8
:1015F0000C01C2F1200C20FA0CF319439040704703
:10160000B0FA80F31533202BE0D3202AEED3203A12
:10161000203B9A4209D9D21A00FA03F141EA0C019F
:101620000020531C40F2FF7CB8E700FA02F141EAC7
:101630000C0100207047524240F2FF7C1CEA11531B
:101640000DD06345DBD0B2EB030C3CBFA1EB0251E4
:1016500070470CF1010221EA035141F4801150EA74
:10166000410CCCD001F0004C352A27DC30B481EAA3
:101670000C01B2F1200309DAC2F12003044601FA99
:1016800003F5D0402843D1409C400CE0C3F1200238
:10169000450020FA03F418BF44F0010421FA03F0D6
:1016A00091400C43002174F1004550F1000051EBD2
:1016B0000C01244230BC7FF47BAF704761460020B0
:1016C00076E70000C1F30A5340F2FE329B1A14DDA4
:1016D000D3F120034FEAE17208DDC90241EA50511B
:1016E00041F00040D84080185040704703F2E1308C
:1016F00010B1D24382F000407047002070470000D4
:10170000C11768B14840401AB0FA80F29040D21C2C
:10171000C907C2F5846241EA025202EBD0214005BA
:101720007047000070B44FF0004591EA030F40F19C
:1017300015836B40841A71EB030603D2001BB14181
:10174000121973414FF4001C1CEB410F34BF7CEBAA
:10175000430442E00C0DA4EB1356352E4FDC45EA52
:10176000C323DB0A45EAC121C912B6F120050DDD0C
:1017700063FA05F6EB4086EA0305124218BF45F00E
:101780000105C01851F100010CD213E062FA06F510
:10179000F2405540F3415A40B340F3405A4080185C
:1017A000594107D349085FEA30005FEA350528BF91
:1017B00045F0010501F58011420875F1004250F134
:1017C000000041EB04514E0016F5001F70BC38BFFD
:1017D00070470020090D090570471CEB410F10D21E
:1017E00052EA43060BD0BCEB410F05D80C0DAB43BE
:1017F000661E342EB6DD02E0AB438018594170BC42
:10180000704770BC70470000F0B540F2FF7581EA88
:10181000030C0CF0004C15EA11541DBF15EA1357C8
:10182000AC42AF42E5E0BC41C1F31301C3F3130383
:10183000801A994143F4801304D2641E4000494148
:1018400080185941C90241EA5051B1FBF3F603FB3C
:101850001611A2FB0675D7EBC020A94102D2761E55
:1018600080185941C90241EA5051B1FBF3FE03FB14
:101870001E11A2FB0E75D7EBC020A94103D2AEF119
:10188000010E80185941890241EA9051760546EAD5
:101890008E2EB1FBF3F603FB1611A2FB0675D7EBF8
:1018A0008020A94102D2761E80185941C90241EA1E
:1018B00050514EEA060EB1FBF3F603FB1611A2FBE4
:1018C0000675D7EBC020A94102D2761E8018594177
:1018D000C90241EA5051B1FBF3F703FB1711A2FB18
:1018E0000735D3EBC020A94167F100070CBF0042C8
:1018F00047F0010766F3D5274FEA1E31B80814F503
:10190000806412DDBD0775F1004250EB0E5051EBC3
:10191000045111F5801F5CBF41EA0C01F0BD4CF091
:101920007F6141F0E0410020F0BDBD076D0840EA55
:101930000E5041F48011D4F10104B4F120060ADA0A
:10194000C4F120060200E04001FA06F3E14018432A
:10195000B24015430EE0342C13DCC6F1200445EAF6
:1019600040056D0820FA06F2154321FA06F0A14061
:101970000D43002175F1004250F1000051EB0C01C4
:10198000F0BD00205FEA0C01F0BDCFB992185B41B9
:10199000B3FA83F704BFB2FA82F6BF190B3FB7F16F
:1019A00020062FBF02FA06F3BB40C7F1200622FA39
:1019B00006F638BF3343BA401CB1E419641E33E75E
:1019C0007F4231F00041B1FA81F404BFB0FA80F6F1
:1019D000A4190B3CB4F120062FBF00FA06F1A14078
:1019E000C4F1200620FA06F638BF3143A0403C1B64
:1019F0001AE7AC421ABF05EA1357AF4212E050EAA9
:101A000041061CBF52EA4306BFE750EA4107304691
:101A100061461CBF41EA0551F0BD52EA430C08BFC4
:101A2000C143F0BD00204FF4001616EB410F98BFE4
:101A300016EB430F08BF16EB410F24BFC14305E06F
:101A400016EB430F0CBF61464CEA0551F0BD000098
:101A5000400D491840EA81200CD2490DA1F5806162
:101A6000491C40F0004005DBD1F11F0154BFC840C4
:101A7000C017704700207047014648B1B0FA80F1A6
:101A80008840C91CC1F58461090501EBD0214005DE
:101A900070470000B0B581EA030C0CF0004C40F236
:101AA000FF7515EA11541DBF15EA1357AC42AF423A
:101AB00039E0E41923EA455343F48013C90241F0A5
:101AC000004141EA505EC7021100A7FB0202002854
:101AD0004FF00000EEFB01204FF00001E3FB072177
:101AE00018BF42F00102401800214941E3FB0E01FA
:101AF000A4F580640F0302D252004041494154F1E1
:101B000001046CDD470872F1004250F1000051EB16
:101B10000451A1F580115CBF41EA0C01B0BD4CEA53
:101B200005510020B0BD05EA1357AC4214BFAF42C7
:101B300041E050EA410E1CBF52EA430E02E061460A
:101B40000020B0BD24423C441BD15FEA070EF6D012
:101B5000090302BF01460020AEF1140EB1FA81F76D
:101B6000AEEB070401FA07FE0C37C7F1200100FABB
:101B700007F7C8404EEA000E23EA455343F48013AA
:101B8000A2E733F00043B3FA83F704BFB2FA82FE50
:101B900077440B3FE41BB7F1200E2FBF02FA0EF380
:101BA000BB40C7F1200E22FA0EFE38BF43EA0E03F7
:101BB000BA40641C82E750EA410E14BF52EA430E59
:101BC0006FF000014FF4001717EB430F8ABF19465F
:101BD00017EB410FB5E74CEA05510020B0BDD4F139
:101BE0000104B4F120070FDAC4F12007520828BF1E
:101BF00042F0010210FA07F501FA07F7E1BF2A43A4
:101C0000E0403843E1400FE0352C98DCC7F1200478
:101C100052EA400220FA07F218BF42F0010231FAFC
:101C200007F0A1400A43002172F1004250F1000088
:101C300051EB0C01B0BD80B5FFF726FB006C02BD77
:101C4000D3BBD9B1B2F5803F5BD2022A1ED98C46F4
:101C5000B1FBF2F102FB11C31B0443EA1043B3FBD7
:101C6000F2FC02FB1C3380B240EA0343B3FBF2F008
:101C700002FB103240EA0C4000237047022A05D9CB
:101C80008446B0FBF2F002FB10C270474AB105D1A6
:101C900000F0010249085FEA30007047002200238B
:101CA000704700F011B90B000200002100207047BE
:101CB000F7D3002200237047904271EB030CF2D35C
:101CC00070B5B1FA81F4B3FA83F52C1BA340C4F1CB
:101CD000200532FA05F63343A2405FF00046E640A5
:101CE00002E05B085FEA3202841A71EB030524BF4D
:101CF000204629467641F4D302000B003000002133
:101D000070BD70B5B1FA81F4B2FA82F5C4F1200465
:101D10006419B4F12006DAD3B2405FF00044F44015
:101D2000002502E052085FEA3303C61A71EB020E87
:101D300024BF3046714664416D41F3D302000B006D
:101D40002000290070BD012000F0C0B870B44FF031
:101D5000004591EA030F7FF5EDAC6B40841A71EBFF
:101D6000030604D26E40001BB141121973414FF4B7
:101D7000001C1CEB410F34BF7CEB430683E00C0DD1
:101D8000A4EB1356362E00F37C80012E45EAC323C4
:101D900041DC43EA525312BFD20292025B0824058F
:101DA00045EAC12141EA5051D2EBC020994125D4E6
:101DB00007D1B0FA80F610FA06F162D00020203682
:101DC00008E0B1FA81F6B140C6F1200220FA02F231
:101DD0001143B0404FEAF474B4EB465434F00106BA
:101DE0004FEA74040AD8D6F50016760D04F00044C4
:101DF000F04061FA06F25040F1404840C00A40EA23
:101E0000415021F0004128BF5FEA500550F1000029
:101E100044EBD12135E0DB0A45EAC121C90AB6F11C
:101E200020050EDD42EA0242120CC5F1200603FA3B
:101E300006F6EB4042EA06056D42984161F1000169
:101E40000DE062FA06F5F240554063FA06FC82EABC
:101E50000C02F3405A406D42904161EB030111F4D2
:101E6000801F05D1641E620502D06D0040414941CA
:101E700021F48011430875F1004350F1000041EB5B
:101E8000045170BC70471CEB410F15D223F0004386
:101E900052EA43060BD04FEA4C0CBCEB410F04D87E
:101EA0000C0D661E342EB7DDEBE7801A994150EA1F
:101EB000410608BF0021E4E708BF1CEB430F28BF21
:101EC0006FF00001DDE700007047000080B5AFF360
:101ED0000080024A11001820ABBEFBE7260002007A
:101EE000F8B5040025D004F13C05697821B900203B
:101EF0002870204600F01EFC2421697020680268CA
:101F00005208520002602068016841F400410160FB
:101F10002068026822F40042026000F0CFFC014613
:101F20006068DFF87424904205D2DFF8703499427B
:101F300005D20120F2BDDFF868048142F9D32068A0
:101F4000DFF860344668B1FBF3F3B60943EA86165E
:101F500046602668376A6068904206D34FF49670F0
:101F600043434FF47A70B3FBF0F35B1CBF0943EAC1
:101F700087133362491E2368DE696768974206D279
:101F80007F0000F043F8042913D2042111E0A06877
:101F900020B907EB470700F039F805E0192047435F
:101FA00000F034F841F4804108050CBF012141F4F0
:101FB0000041DFF8F40306400E43DE612268136837
:101FC000E169206A23F0C0030B43034313602268D6
:101FD000DFF8D803936821690340E0680B430343AB
:101FE00093602168CA68A3696069120A034343EADF
:101FF0000222CA602068016841F0010101600020EE
:102000006860202169702063A870F2BDB1FBF7F110
:10201000491CC1F30B0170472DE9F84304460E46F5
:10202000154600F048FA04F13C07804678782028ED
:1020300008D1CDF8008019230122DFF8801300F0C9
:1020400054FA002840F08080387801287CD00121A3
:10205000397000F033FA21207870102100F073F904
:102060002085DFF85C03E062E16A082918BF0129D6
:1020700004D081421CBF206B122801D100F02CFA41
:10208000CDF800800022089D2B4600F02CFA38B1D4
:1020900020680168CA0550D54FF4007078604CE0A4
:1020A0002069B0F5804F08BF06F0FE0610D0F10998
:1020B000206801F0060141F0F001016143462A4623
:1020C000DFF8A013204600F050FA002835D1F6B210
:1020D0002068DFF89413066143462A46204600F044
:1020E00044FA002829D1009021684A690092896940
:1020F0000091009A208D002821D04246294600F008
:102100000AFAA8B900F013F9401E208521684A692F
:10211000530706D580B220B1606A02780A6100F0E8
:10212000FCF842462946204600F08CFA0028E1D00F
:102130007868042801D100F0E7F9012005E000F0FB
:10214000E3F900F008F900E00220BDE8F2832DE990
:10215000F84F00F0DCF800F02BF902D100F015F98F
:10216000002840F0CB803878012800F0C78000F0CC
:1021700006F901D400F097F900F0F9F81021B970D0
:1021800000207860C6F82490A6F82A80708D3085EB
:10219000DFF82C02F062F16A32681368082943F410
:1021A000806318BF0129136004D081421CBF306BCB
:1021B000112801D100F09CF900940022DDF828904C
:1021C0004B464FF0011100F0CFF800284FF4007A91
:1021D00031D13069DFF89082B0F5804F05D1306899
:1021E00045F00105EDB2056130E0E809326800F024
:1021F000060B4BF0F001116123464A46DFF86412EA
:1022000000F082F800286FD13068EDB2056100F06F
:1022100078F8002868D100904B4600F0FFF831684C
:102220000A6842F480720A60009400224FF00111A3
:1022300000F09AF830B130680168CA0554D5C7F883
:1022400004A051E030684BF0F101016100F059F851
:10225000002849D1308D18B1012804D100F006F9C9
:1022600000F0E3F818E002283068016805D121F495
:102270008061016000F0A6F802E041F48061016035
:10228000002000F0CAF807E000F0A9F800282BD1E0
:1022900000F09EF800F0A8F8308D00282BD004281C
:1022A0001FD20128F0D00228DFF8045200944B46D8
:1022B0000AD100F057F8002816D100F0DEF8716A54
:1022C0000870706A421CE5E700F04CF800280BD15A
:1022D00000F014F94B4600F0B5F800F044F818B9D6
:1022E000EBE700F07CF808B1012008E000F084F88A
:1022F000D2D50069E3E700F02EF800E00220BDE847
:10230000F28F23464A464146304600F02EB9064633
:102310000D469146984600F021BB606A411C6162FF
:10232000608D411E6185208D411E21857047606A48
:10233000226801781161606A411C6162608D411EF2
:102340006185208D7047B970002078606562A4F8BF
:102350002A90608D7047202078700021B97000208D
:102360003870704700222946304600F0D6B83068F1
:10237000016821F40061016022207870704701211A
:10238000397030680268D107704700941923012220
:102390000A49304600F0C1B8A186010080841E00C1
:1023A00000093D0040420F000030FFFF007CFFFFAE
:1023B00006F13C0704467878202870470200100098
:1023C0000000FFFF3068026842F40062026070475C
:1023D00030680169706A0170716A4A1C7047224650
:1023E0004946304600F04BB9308D7262411E31854E
:1023F000708D411E7185704730680169706A017087
:10240000716A308D4A1C411E72623185708D411E89
:102410007185306841694A077047009031684A69A0
:1024200000928969009100987047009031684A696C
:10243000009289690091009831680A6842F400723C
:102440000A60704730680169706A0170716A308D86
:102450004A1C411E726231850022708D411E7185B9
:102460000094704708000100020001003068016814
:1024700021F480610160002070473068016841F4F8
:102480000071016030680169706A0170716A308D95
:102490004A1C411E72623185708D411E7185326801
:1024A000106970473068026842F0010202607047AC
:1024B000040001009046994600F050BA2068026876
:1024C000D10703D4026842F001020260206801686B
:1024D00021F40061016070472068016841F4807157
:1024E0000160704700224FF00111204600F015B83E
:1024F0003068016841F4807101607047306801689C
:1025000021F48061016070472068016841F4007126
:10251000016070474146204669E02DE9F041069F81
:1025200005460E4690461C4631022868090E0129D0
:102530000CBF40698069304080B2B1B288420CBFA4
:102540000120002040450DD114F1010FECD000F026
:1025500005FAC01B844201D3002CE5D100F064F8D9
:10256000012000E00020BDE8F081F8B505460E46E8
:1025700014461F463102090E286801291AD1416903
:10258000314089B2B2B291421AD04069410519D5A1
:10259000286800F025F82A685061002105F13C0008
:1025A0002963202242708170426842F00402426036
:1025B000017013E08169314089B2B2B29142E4D135
:1025C0000020F2BD14F1010FD4D000F0C7F9C01BF8
:1025D000844201D3002CCDD100F026F80120F2BDB9
:1025E000026842F4007202606FF48060704770B558
:1025F00005460C46164628684169080612D4284646
:1026000000F069F808B1012070BD14F1010FF2D09B
:1026100000F0A4F9801B844201D3002CEBD100F020
:1026200003F8F0E7002070BD00202863202105F1A9
:102630003C00002241708270416841F020014160FD
:102640000270704770B505460C4616462868416909
:10265000480712D4284600F03EF808B1012070BDAA
:1026600014F1010FF2D000F079F9801B844201D3FC
:10267000002CEBD1FFF7D8FFF0E7002070BD70B55C
:1026800005460C461646286841694A0617D4416932
:10269000CA060BD400F062F9801B844201D3002CDF
:1026A000F1D100F00EF841F0200104E06FF01001CC
:1026B000416100F006F841600270012070BD002009
:1026C00070BD00202863202105F13C0000224170EC
:1026D00082704168704701684A6953050FD56FF4ED
:1026E00080624A61002101633C3020224270817087
:1026F000426842F0040242600170012070470020ED
:1027000070470000254A2648264980B542600023CC
:102710004FF4804201608360C36002614361836162
:10272000C3610362FFF7DCFB18B1BDE8014000F0B4
:10273000E7BA01BD10B586B004461422002101A8F5
:1027400000F00AFB21681748814224D10022164C70
:1027500000921222206840F002002060216801F0FF
:1027600002010091C02100981048019102920121BC
:102770000391032204210591049201A900F0F6FAC5
:1027800000200090216941F400112161206900F4CA
:1027900000100090009806B010BD0000801A0600DE
:1027A000140300200054004030380240000402406E
:1027B0002DE9F04104000F4654D0494E306800F036
:1027C0000F00B84202D200F073F84BD12068454D9B
:1027D000810712D5400703D5A96841F4E051A960EB
:1027E0002078010703D5A86840F46040A860A96874
:1027F000A06821F0F0010143A9602178C80729D51C
:102800006068012802D129688A0305E0022818BF00
:10281000032803D129688A0103D423E029688A07A1
:1028200020D5A968890840EA8100A86000F096F8E0
:102830008046A868616800F00C00B0EB810F09D0F9
:1028400000F08CF8A0EB080041F289318842F0D307
:1028500003202BE0306800F00F00874204D200F024
:1028600027F801D0012021E02078410705D5AA688A
:10287000E06822F4E0520243AA602178080706D5F6
:10288000A968206921F4604141EAC001A96000F013
:1028900035F8AA681449154BC2F30312895CC84085
:1028A00018601348006800F063FB0020BDE8F08169
:1028B0003770316801F00F01B94270470B480D4A7B
:1028C000006813680C49C3F3822206E00748094AEE
:1028D000006813680849C3F34232895CC8407047F6
:1028E000003C0240003802400C5300082801002040
:1028F0002401002008380240F853000830B5144C79
:10290000606800F00C00042802D0082802D01DE006
:10291000104830BD226820680023410202F03F02C7
:1029200004D525680B49C5F3881003E020680A49DF
:10293000C0F38810A1FB0001FFF782F92168C1F301
:102940000141491C4900B0FBF1F030BD024830BDE7
:102950000438024000127A000024F4000148406864
:10296000704700BF1C01002001B50A2301226946FF
:10297000D14800F058FB009802BD00002DE9F84F47
:102980002DED028B82B000F077FE00F012F900F01E
:102990008DFE00F0F9FE00F021FFFFF7B3FE00F01E
:1029A000A7FF01F091F800F0D5FF00F06FF9682261
:1029B00004F19801284600F0F6FB5D2204F138018D
:1029C000284600F0B4FB022204F10A01BB48BC4DCA
:1029D000DFF8F0820FF22C3BDFF8ECA201F0CFF928
:1029E00001F074FC00F0D0F80021B84801F0E8FCD8
:1029F0000821B74801F0E4FC04F58870002604F5CE
:102A0000807901909FEDAA8AB1E0032876D101F088
:102A100076FCF32000F0C4F8642001F019FF00F008
:102A2000B7F82278677847EA0227BC4600EE10CA5A
:102A3000B8EE400A20EE080A10EE100A01F01CFF62
:102A4000A44AA54BFFF726F8A44AA54BFFF77EF949
:102A500001F036FFE060278100F096F8E06801F0B1
:102A60000BFF02464FEA0103ADA1484601F05CFFAF
:102A7000484601F063FCF52000F092F8642001F074
:102A8000E7FE00F085F82178607840EA01200246F0
:102A900000EE102AB8EE400A20EE080ADFED850AA3
:102AA000B9EE081A208100EE201A84ED041A0121E3
:102AB00000F06BF8206901F0DFFE02464FEA0103E7
:102AC0009BA1484601F030FF484601F037FC15E075
:102AD00002289AD101F013FC0C21584601F020FC89
:102AE000628901988BA101F01FFF012100F04DF8D0
:102AF000019801F023FC642001F0AAFE2179A1F1E4
:102B00003000082820D200BF8DA001F02DFF2868DA
:102B1000744900F0FE002860207904EB800252F82E
:102B2000A83CB1FBF3F0411EA9614208AA626061B2
:102B3000642001F08DFE00206B49A86209200A681C
:102B400042F001022A602071A07901280CD100BF57
:102B50007FA001F009FF0020E07001F0D0FB002011
:102B6000CAF80000A862A071FA2001F071FEE078B6
:102B70000128ADD1B0B2CAF80000761CB0B2652809
:102B8000A8BF00260A20B7E70021002001F0B9BB4A
:102B90000A2000900223224680214046FFF7D7BA40
:102BA0000A21607100910123621D80214046FFF7D8
:102BB00033BA80B592B03022002106A800F0CCF8DC
:102BC0001422002101A800F0C7F8002000904FF463
:102BD00080334648016841F080510160002100685F
:102BE00000F080500090009841480091026842F443
:102BF000804202600122006800F48040009006A834
:102C00000099069202214FF480020C910D9204214A
:102C1000A8220E910F920221042207931091119283
:102C200001F0B6FE02210291002203920F204FF420
:102C3000A051019004914FF480520592052101A802
:102C4000FFF7B6FD13B000BD00682A49884200D0E6
:102C5000704738B500F01AF80A230122A11C284653
:102C600000F0E1F9A0784C2808BF01200CD04328DF
:102C700008BF022008D0A0F13001082901D220713C
:102C800031BD542801D10320E07031BD0A4D1A4CEA
:102C90000122A11C284600F01FBA80B54FF48051D4
:102CA000164800F03AF910B113490120887101BDAE
:102CB000000080370000FA4280040020B8030020A2
:102CC000140C0040140300203400004000040020D5
:102CD00040040020D7A3703D0AF76540CDCCCCCC92
:102CE000CC6C47C000BD0105144001404038024093
:102CF000007000400010014000000020000402406D
:102D00007047000041444320504F4C4C54455354AD
:102D100000000000414443203A20256400000000E8
:102D200054454D50203A2025352E326C6600000067
:102D300048554D49203A2025352E326C660000005A
:102D40007069616E6F4E203A2025642000000000FB
:102D500073746F700000000010B5044610460A46F8
:102D60000146204601F09CFF204610BD2DE9F84F9A
:102D70000D4600267249734A0F23044601202F682E
:102D8000B04000EA0708804540F0C1804FEA460C99
:102D9000032707FA0CF76FEA070E6F68012F18BFB9
:102DA000022F03D0112F18BF122F12D1A768D5F808
:102DB0000C900EEA070709FA0CF949EA0707A76021
:102DC000676827EA00006F68C7F30017B740384309
:102DD0006060E068AF680EEA000007FA0CF738435D
:102DE000E060B0006F68022F18BF122F12D1F708F1
:102DF00004EB870700F01C09D7F820A003FA09FBB1
:102E00002AEA0B0AD5F810B00BFA09F949EA0A09BF
:102E1000C7F8209027680EEA070E2F7907F00307FE
:102E200007FA0CF747EA0E0727606F68FF006ED5B8
:102E3000002700974FEA960C176847F48047176001
:102E400000F00C00176807F48047009703FA00FEB3
:102E5000009F3D4F57F82C7027EA0E0E3B4FBC42A7
:102E600008BF002722D03A4FBC4208BF01271DD01F
:102E7000384FBC4208BF022718D0374FBC4208BFAA
:102E8000032713D0354FBC4208BF04270ED0344F60
:102E9000BC4208BF052709D0324FBC4208BF0627F5
:102EA00004D0314FBC420CBF0727082707FA00F0B7
:102EB000254F40EA0E0047F82C006FEA08000F6823
:102EC00000EA070C6F68FF0348BF48EA0C0CC1F822
:102ED00000C04F6800EA070C6F68BF0348BF48EAAC
:102EE0000C0CC1F804C08F6800EA070C6F68FF0281
:102EF00048BF48EA0C0CC1F808C0CF6800EA070CCC
:102F00006868800248BF48EA0C0CC1F80CC0761C07
:102F10000F2E7FF633AFBDE8F18F0069084018BF70
:102F20000120C0B2704702B90904816170470F4A9D
:102F3000136803421CBF1060FFF7AFBE704700006C
:102F4000003C014044380240083801400000024083
:102F50000004024000080240000C02400010024041
:102F60000014024000180240001C0240143C0140C2
:102F700038B50D4D0D4B2A7804464FF47A71186818
:102F8000B1FBF2F2B0FBF2F001F000FF50B9102CEF
:102F900008D2002221464FF0FF3001F0CFFEAC6096
:102FA000002032BD012032BD1C010020280100207C
:102FB00038B5040001D1012032BD00F021F808B974
:102FC00000F022F800F012F800F023F8FFE741616A
:102FD00000F001F832BD2068C16841F40051C160C1
:102FE0000020686020216970A970704724206870F3
:102FF0002068C16821F40051C160204600F0C9BAC0
:1030000004F138056878704700212970204600F0E7
:1030100072BD2068016921F4904101612068416915
:1030200021F02A0170472DE9F843054605F13807DC
:103030000C46787820281646984646D1002C14BFB6
:10304000002E012042D0387801283ED0012139706D
:103050000020786021227A70FFF780FC8146AE84E0
:10306000EE840020387003E02A6814F8011B5160D8
:10307000E88CE0B1E88C411EE9844B46A868CDF8A5
:103080000080B0F5805F0DD100F022F8B8B920883B
:103090002968C0F3080048602869002814BF641C30
:1030A000A41CE5E700F014F80028DDD007E0CDF817
:1030B00000804B460022402100F00CF808B10320AC
:1030C00004E020207870002000E00220BDE8F283B8
:1030D000002280212846C4E110B500F138039C7815
:1030E000202C22D109B1140001D1012010BD1C787F
:1030F000012C1AD001241C7081628285C2850021B6
:10310000596022229A7019700168CA6842F480726C
:10311000CA6001684A6942F001024A610068C168F8
:1031200041F02001C160002010BD022010BD70B52B
:10313000044604F1380513466878202831D109B1D6
:10314000180001D1012070BD2878012829D0012064
:1031500028702162A384E3840020686021226A70C1
:103160000FF24120226BD063226B0FF265201064B6
:10317000226B0FF2A520D0640020266B30652068FA
:10318000021D206B01F099FE21686FF0400008607D
:1031900000222A702068416941F0800141610020CD
:1031A00070BD022070BD7CB5044604F1380513469D
:1031B000A878202840D109B1180001D1012076BD9E
:1031C0002878012838D001202870A162A385002228
:1031D0006A602220A8700026606B0FF2FD12C263A5
:1031E000606B0FF22D220264606B0FF22D22C2641D
:1031F0000A46606B06652668606B311D01F05DFE56
:1032000000210091226813680093206841680091B2
:103210000021009829702268D06840F48070D06046
:103220002068416941F0010141612068416941F034
:1032300040014161002076BD022076BD416921F048
:1032400040014161606B704770B5044620680368B7
:10325000C668456913F00F0206F0200003F0200154
:1032600007D1002918BF00285BD02046BDE8704078
:1032700046E1EA0702D416F4907F52D0DA0705D56A
:10328000F60503D5E26B42F00102E2635A0705D569
:10329000EE0703D5E26B42F00202E2639A0705D51E
:1032A000EE0703D5E26B42F00402E2631A0706D58B
:1032B00008B9EA0703D5E36B43F00803E363E26B65
:1032C000002A6ED000291EBF0028204600F018F901
:1032D00020684069E16B0A0701D440061BD52046EF
:1032E00000F0FAF8206841694A060FD5FFF7A6FFFB
:1032F00060B10FF201210165606B01F00FFE002843
:103300004FD0606B016DBDE8704008472046BDE8B6
:10331000704001F01DBF204601F01AFF0020E0635D
:1033200070BD18062CD531062AD594F8390021280D
:1033300037D1A068B0F5805F206A0CD1018822687F
:10334000C1F30801516020690028206A0CBF811C6C
:10335000411C216204E0411C216222680078506017
:10336000E08C401EE08480B2D8B92068C16821F0AA
:103370008001C1602068C16841F04001C16070BD3A
:1033800058060ED571060CD52068C16821F04001A1
:10339000C1602046202184F83910BDE8704001F05A
:1033A000D8BE70BD816B00680268D30544BF084673
:1033B00001F0CFBE0020C8840868426922F0800274
:1033C00042610868C16841F04001C1607047000077
:1033D000806B01F0BFBE0000816B00680268D305FE
:1033E00013D40020C8850868C26822F48072C260C5
:1033F000086842695208520042610868426922F036
:1034000040024261202081F83A000846FFF71CBCC8
:10341000806B01F0A0BE000038B5846B2068406965
:1034200004F139052978212906D1010604D50022A5
:10343000E284204600F047F821684869697822292B
:1034400006D1400604D50021E185204600F044F86D
:10345000E06B40F01000E0632046BDE8324001F030
:1034600077BE2DE9F041069C05460E4690461F4664
:10347000286801683140B1420CBF0120002040455E
:1034800017D114F1010FF3D024B1FFF767FAC01B75
:103490008442EDD22868C16821F4D07100F00CF8A4
:1034A00005F1380020214170817000210170032056
:1034B00000E00020BDE8F081C1602868416949084A
:1034C0004900416170470168CA6822F0C002CA60C1
:1034D000202180F8391070470168CA6822F4907280
:1034E000CA6001684A69520852004A61202180F886
:1034F0003A107047806B0021C185C18401F028BE5D
:1035000080B590F83A10222941D18168B1F5805FE9
:1035100012D101690368826A0029596805D1C1F393
:1035200008011180826A911C04E001F0FF01118002
:10353000826A511C81620FE001690029816A04D10D
:103540004A1C826203685A6805E04A1C826203686A
:103550005A6802F07F020A70C18D491EC18589B286
:1035600099B90168CA6822F02002CA600168CA6875
:1035700022F48072CA6001684A69520852004A61A6
:10358000202180F83A10FFF75FFB002002BD0220E7
:1035900002BDD0B50646642732681169F06821F48F
:1035A0004051014311611924D3682D48B16803408B
:1035B00030690B4371690343F0690B430343D360E4
:1035C0005169B06921F4407101435161F3692548A3
:1035D0002549B3F5004F1FD18A4218BF824202D15C
:1035E000FFF774F901E0FFF769F90246A4FB020155
:1035F0007268D30F5200FEF723FB00F037F8FF008C
:1036000032376420B7FBF0F0420002F4F87202EBAC
:10361000011200F007001DE08A4218BF824202D169
:10362000FFF754F901E0FFF749F90246A4FB020154
:103630007268930F9200FEF703FB00F017F83F014A
:1036400032376420B7FBF0F000F0F00202EB011219
:1036500000F00F00316880188860D0BD00000000C5
:10366000F369FFFF00140140001001406421B0FB2A
:10367000F1F107FB1107704780B50B48016841F471
:1036800000710160026842F480620260016841F4E6
:1036900080710160032001F044FB0020FFF768FC0B
:1036A00001F05AFD002002BD003C024038B586B052
:1036B0001422002101A8FFF74FFB00212A482B4DBF
:1036C0002B4C0091026842F08002026000220168E7
:1036D00001F08001009100990092036843F0040317
:1036E0000360016801F004010091009900920368F1
:1036F00043F001030360016801F0010100910099AA
:103700000092F121036843F002030360006800F0B7
:103710000200009000982846FFF705FC00220721D0
:103720002046FFF700FCF12100F026F82846FFF7BD
:103730001DFB072100F020F82046FFF717FB4FF490
:1037400080500C49019002910022039201A9204669
:10375000FFF70CFB00220021282001F0EFFA2820BF
:1037600001F009FB07B030BD3038024000080240CC
:103770000004024000001110019101220021039178
:103780000491029201A9704780B5002000900022A8
:103790001148016841F4800101600021006800F4D3
:1037A000800000900098382001F0C8FA382001F01D
:1037B000E2FA002200213A2001F0C0FA3A2001F09A
:1037C000DAFA00220021462001F0B8FABDE80240F2
:1037D000462001F0D0BA00BF303802401FB5102299
:1037E00000216846FFF7B8FA3A4C3B4820604FF496
:1037F00080313A48A0626160012000220121E0612D
:1038000084F830006061A2602261217684F8202073
:10381000E262E260204600F0EFF908B1FFF770FACB
:103820000020012100900191032202926946204666
:1038300000F02CFB08B1FFF763FA1FBD38B586B066
:1038400004461422002101A8FFF786FA21682248C5
:1038500081423DD100222248224D0092416941F42B
:1038600080714161416901F4807100910099009279
:103870000121036843F0010303600322006800F0A4
:1038800001000090009818480191029200210391D4
:1038900001A9FFF76BFA1548286000216960E9600B
:1038A0004FF400604FF48061686129614FF48070CB
:1038B00000224FF40051E861AA60A9612A626A629D
:1038C000284601F083FA08B1FFF71AFAA563AC6342
:1038D00007B030BDB8030020002001400100000FF8
:1038E00030380240B4020020000002401064024060
:1038F00018B58DB000F072F800F06BF800F064F8C5
:103900006B4C4FF080402060532164200022E06027
:103910006160A2602261A261204600F01DFD08B135
:10392000FFF7EEF900F05FF808B1FFF7E9F920467C
:1039300000F039FD08B1FFF7E3F900F05BF808B1DA
:10394000FFF7DEF9602102910022039204920692B1
:1039500002A92EE018B58DB000F040F800F039F85B
:1039600000F032F8534C5448206000216160A1609F
:10397000E1602161A161204600F0EEFC08B1FFF793
:10398000BFF900F030F808B1FFF7BAF9204600F0AF
:103990000AFD08B1FFF7B4F900F02CF808B1FFF701
:1039A000AFF960210022029103920492069202A9CB
:1039B0000822204600F024FD08B1FFF7A1F92046B7
:1039C00000F03FF80EB010BD1C22002102A8FFF746
:1039D000C3B9082200216846FFF7BEB910220021B2
:1039E00009A8FFF7B9B94FF48050099009A92046FA
:1039F00000F07EBD0021009101912046694601F052
:103A0000C7BB81B000682D49B0F1804F09D10020BB
:103A100000900A6842F001020A60086800F00100A4
:103A20000BE0254A90420AD1002000900A6842F03B
:103A300008020A60086800F008000090009801B0D1
:103A4000704710B586B004461422002101A8FFF784
:103A500083F921681A481B4AB1F1804F06D100F062
:103A60001BF8202200F011F8012208E0124B9942C5
:103A700009D100F011F8042200F007F802220592A3
:103A800001A9FFF773F906B010BD009901920293E6
:103A9000002203920492704700210091136843F0C2
:103AA000010313600223116801F0010100917047C6
:103AB0000004002040040020000C00404038024078
:103AC000000002403038024080B545484549016059
:103AD0004FF4E13200230C2142608360C360036134
:103AE00041618361C361FFF763FA18B1BDE801402A
:103AF000FFF706B901BD2DE9F04186B00446142256
:103B0000002101A8FFF728F921683648814263D1D6
:103B100000223548354D364E00924FF0006741691E
:103B200041F0100141614FF48068416901F01001DA
:103B30000091009900924FF4C061036843F00103C3
:103B400003600222006800F00100009000982948FC
:103B50000191029200210391032207210591049211
:103B600001A9FFF703F90020A860E8606861A86177
:103B7000E861286268622E606F60C5F81080284690
:103B800001F024F908B1FFF7BBF806F1780005F160
:103B90008406402165632866A9660020E866686798
:103BA000A867E867C5F880003060AC636F66C5F849
:103BB000708005F1600001F009F908B1FFF7A0F885
:103BC00005F160002063746100220021252001F0CE
:103BD000B5F8252001F0CFF806B0BDE8F08100006F
:103BE000800400200010014030380240F401002021
:103BF000406402400000024070B5044600250CB944
:103C0000012070BD04F13006306920B92046FFF76D
:103C100015FE756135733069C10600F19280306917
:103C2000DFF8A01320F4885040F0020030610868EB
:103C300020F4403008600A68606802430A60206827
:103C4000416821F48071416020684168226941EA3D
:103C5000022141602068416821F040714160216883
:103C60004A68A06802434A602068816821F40061C4
:103C7000816021688A68E06802438A602068A16ADE
:103C8000DFF844239142816821F0706181600CD09B
:103C900021688A68A06A02438A6000F05BF82168A4
:103CA0008A68E06A02438A6001E000F053F8206805
:103CB000816821F0020100F049F8227E41EA4201C8
:103CC000816094F820002168002848680FD040F4F3
:103CD000006048602068416821F4604141602068CC
:103CE0004168626A521E41EA4231416002E020F4BA
:103CF000006048602068C16A21F47001C1622068D8
:103D0000C16AE269521E41EA0251C16220688168BB
:103D100021F4007100F01AF8327841EA422100F0F3
:103D200015F821F4806100F011F8626941EA8221FE
:103D300081607561316921F0020141F00101316159
:103D400000E0012500203073284670BD81602068A6
:103D5000816870472068816821F040518160704718
:103D6000126802F01F02102A7047016841F080417A
:103D700001607047816841F0804181607047F8B50B
:103D80000446002004F13C0300901D78012D01D170
:103D90000220F2BD0120187020688568EE070DD45E
:103DA00085688F4E45F0010585608E480568B5FB36
:103DB000F6F606EB4606009600F0FBF82568A868C4
:103DC000C60761D55F688448074047F480775F6025
:103DD0006868450505D5586820F4005040F48050C7
:103DE00058605868C50446BF986820F00600002057
:103DF000986000251D70A36B0FF2ED10D863A36BC4
:103E00000FF24D201864A36B0FF24D20D8646FF0B1
:103E10002200256828602068436843F0806343607F
:103E200013462068856845F4807585600A462068D9
:103E300000F14C01A06B01F040F82068614A67492D
:103E4000136813F01F0F16D188420DD05F498842C6
:103E500004D1126812F01F0F16D105E05C498842A8
:103E600012D1FFF77DFF0FD2816811F0405F0BD1B7
:103E7000FFF780FF08E0884202BF5648016811F052
:103E8000405F01D1FFF771FF0020F2BD78B5024617
:103E90000020009092F83C30012B01D1022072BD2D
:103EA000012082F83C0007240B6810680A2B12D30B
:103EB0000A3BC56803EB43039C4025EA0404C46045
:103EC000C3680D688C68A5F10A0606EB4606B44087
:103ED0002343C3600FE0056903EB430304FA03F3D4
:103EE00025EA0303036103690D688C6805EB45054A
:103EF000AC40234303611F244B68072B0CD25B1E8D
:103F0000456B00F050F84463436B4D680C886E1E9F
:103F100000F044F843631BE00D2B0CD2DB1F056B54
:103F200000F041F80463036B4D680C88EE1F00F04D
:103F300035F803630CE00D3BC56A00F034F8C46249
:103F4000C36A4D680C88A5F10D0600F027F8C3621E
:103F5000224B98421DD10C681A48122C03D10368D9
:103F600043F4800303600B68102B18BF112B10D192
:103F7000036843F4000303600868102809D1194955
:103F8000174C0B68B3FBF4F40A204443009400F090
:103F900010F8002182F83C10002072BD06EB860666
:103FA000B4402343704703EB83039C4025EA040499
:103FB000704702E00098401E009000980028F9D158
:103FC00070470000042301400100000F0021014060
:103FD0000022014008200140FEF9FFFF00200140BF
:103FE00040420F0028010020816B0A6C12F0500F34
:103FF00024D1086C40F4007008640A68906810F0DE
:10400000405F04BF087E002815D1D06A10F4700FFD
:1040100002D0906843050ED4506820F02000506014
:10402000086C20F480700864086CC20403D4086C27
:1040300040F001000864084601F0F0B80A6CD306AD
:1040400044BF084601F0EBB8896BCA6C104700000A
:10405000806B01F0E5B80000806B40210164426C88
:1040600042F00402426401F0DAB800003C2000BFD4
:1040700000BF00BF00BF00BF00BF00BF00BF00BF48
:1040800000BF00BF00BF00BF00BF00BF00BF00BF38
:1040900000BF00BF00BF00BF00BF00BF00BF00BF28
:1040A00000BF00BF00BF00BF00BF00BF00BF00BF18
:1040B00000BF00BF00BF00BF00BF00BF00BF00BF08
:1040C00000BF00BF00BF00BF00BF00BF00BF00BFF8
:1040D00000BF00BF00BF00BF00BF00BF00BF00BFE8
:1040E00000BF00BF00BF00BF00BF00BF00BF00BFD8
:1040F00000BF00BF00BF00BF00BF00BF00BF00BFC8
:1041000000BF00BF00BF00BF00BF00BF00BF00BFB7
:1041100000BF00BF00BF00BF00BF00BF00BF00BFA7
:1041200000BF00BF00BF00BF00BF00BF00BF00BF97
:1041300000BF00BF00BF00BF00BF00BF00BF00BF87
:1041400000BF00BF00BF00BF00BF00BF00BF00BF77
:1041500000BF00BF00BF00BF00BF00BF00BF00BF67
:1041600000BF00BF00BF00BF00BF00BF00BF00BF57
:1041700000BF00BF00BF00BF00BF00BF00BF00BF47
:1041800000BF00BF00BF00BF00BF00BF00BF00BF37
:1041900000BF00BF00BF00BF00BF00BF00BF00BF27
:1041A00000BF00BF00BF00BF00BF00BF00BF00BF17
:1041B000401E00287FF45BAF704781B0002343F6B8
:1041C000E4620093504301E00098401E0090009884
:1041D0000028F9D101B0704738B586B00020304CC6
:1041E000304D00900722216841F002012160012337
:1041F000206800F0020000902846009901920021FA
:1042000003910491029301A9FEF7B0FD002207215A
:1042100000F059F800200090216841F0020121606F
:10422000F021206800F00200009000981E480191E3
:1042300001A9FEF79BFD07B030BD70B50446194DCE
:104240000022032108E070B50446164D0122022128
:1042500000F039F80022012100F035F800F031F8C3
:10426000114E00F023F800F026F80120FFF7FEFEC3
:10427000002200F027F80120FFF7F8FE00F021F8F7
:1042800000F014F8240100F016F80120FFF7EEFE0C
:10429000002200F017F8BDE8704002208DE7000012
:1042A0003038024000040240000802400022F021A1
:1042B0003046FEF738BE012204F0F0013046FEF72A
:1042C00032BE012204212846FEF72DBE80B5FFF73D
:1042D00083FF2820FFF7B1FF0120FFF7AEFF642026
:1042E000FFF76BFF0620FFF7A8FF0C20FFF7A5FFE5
:1042F0000220FFF7A2FFBDE8024080209DE70120D9
:104300009BE7012905D007D3032904D038BF143017
:1043100002E0403000E0543040F08000C0B28CE752
:1043200070B504000D4608D0002603E0205CFFF7BE
:104330008AFF761CF0B2A842F8D370BD38B50400ED
:1043400008D0002502E0FFF77EFF6D1CE8B2205C7C
:104350000028F8D131BD000038B5040001D101209A
:1043600032BD00F045F818B900F03EF8FFF749FB00
:10437000FFE702206870211D206800F016F9012077
:104380006870002032BD03D1416C41F400414164AA
:10439000816801F00701062903D0016841F001019D
:1043A0000160002010BD38B5040001D1012032BDEC
:1043B00000F01EF818B900F017F800F032FFD8E747
:1043C00010B500F007F800F00AF81CBFDFF828204D
:1043D0009042D8E704460122206800F02ABA2068FB
:1043E000DFF8181088427047002129702046704776
:1043F00004F13C056878704700040140000001406A
:1044000070B500F063F801D1022070BD00F06BF8C8
:1044100032B1042A17D0082A28D00C2A39D04AE011
:104420003068294600F00CF93068816941F00801D4
:1044300000F048F821F00401816131688A69286937
:1044400002438A6137E03068294600F025F9306878
:10445000816941F4006100F035F821F4806100F0D9
:1044600031F82A6941EA0221816124E03068294655
:1044700000F042F93068C16941F0080100F01EF80F
:1044800021F00401C1613168CA6928690243CA6127
:1044900011E03068294600F05EF93068C16941F4E6
:1044A000006100F00BF821F4806100F007F82A6940
:1044B00041EA0221C16100F010F870BDC1613068AD
:1044C000C16970478161306881697047064606F1AD
:1044D0003C040D46207801287047012060700021BF
:1044E0002170002070470120207002216170704708
:1044F00038B500F04EF801D1022032BD0120207005
:1045000002226270DFF894022A6893680340936085
:104510000868020018BF10282DD0202818BF3028A6
:1045200029D0402823D0502816D0602818D07028D1
:1045300003D0B0F5005F07D021E000F025F828682F
:10454000816841F0770105E000F01EF82868816875
:1045500041F48041816012E000F012F850210BE03C
:10456000CA684968286800F040F9602104E000F05A
:1045700007F8402100E00146286800F048F90EE005
:10458000CA684968286821E1CB684A688968286850
:1045900045E1054605F13C042078012870470120DB
:1045A000607000212170002032BDF0B57C4C0568A0
:1045B0007C4B7D4E7D4FDFF8F8C1A04218BFB0F1B3
:1045C000804F07D0604518BFB84203D0B04218BF33
:1045D00098420DD14A6825F070051543A04218BFD6
:1045E000B0F1804F17D060451CBFB842B04212D026
:1045F00098421CBF6F4A90420DD06F4EB0421CBF14
:104600006E4A904207D06E4EB0421FBF6D4A904234
:104610006D4EB04203D1CA6825F4407515434A690E
:1046200025F0800515430560A0428D68C5620A68C3
:10463000826212BF98420969016301224261F0BDA2
:10464000F0B5026A564F520852000262066A446888
:1046500085690B688A6825F0730526F002061D43FC
:104660001643504BB84218BF984207D1CA6826F08B
:1046700008061643B84226F0040601D0984205D138
:104680004B698A6924F440741C4314434460856177
:10469000496841630662F0BDF0B5026A404E22F0FF
:1046A00010020262B042056A436884690A6824F411
:1046B000E64444EA02248A6825F0200545EA02150A
:1046C000384A18BF904208D1CF6825F0800545EAE6
:1046D0000715B04225F0400501D0904206D14E6941
:1046E0008A6923F44063164343EA86034360846186
:1046F000496881630562F0BDF0B5026A22F48072F8
:104700000262056A4368C4698E680A6825F4007508
:1047100024F0730445EA06251443214E214AB04291
:1047200018BF904208D1CF6825F4006545EA0725F7
:10473000B04225F4806501D0904206D14E698A6965
:1047400023F44053164343EA06134360C4614968A7
:10475000C1630562F0BD70B5026A114E22F4805249
:104760000262B042046A4268C3690D6823F4E643FA
:1047700043EA05238D6824F4005444EA05341CBF41
:10478000084DA84204D14D6922F4804242EA8512C4
:104790004260C36149680164046270BD8800FFFF24
:1047A0000000014000040140000C004000080040EF
:1047B0000004004000400140004401400048014026
:1047C00000180040001C00400020004010B5036AA3
:1047D000046A64086400046223F00A03846924F014
:1047E000F00444EA021484612EE010B5036A23F059
:1047F000100303628369046A23F4704343EA0233BB
:1048000024F0A004836144EA0114046210BD8268AC
:1048100022F07002114341F007018160704710B52A
:10482000846824F47F442143114341EA03218160D9
:1048300010BD10B501F01F01036A01248C40A34391
:10484000036202FA01F1036A1943016210BD00001C
:1048500038B50446FEF782F814F1010F054602D080
:10486000044801786418FEF779F8401BA042FAD397
:1048700031BD00BF1C010020C0F3C75181B1FF2929
:1048800006D0C110400721F0E04101F160517047AE
:1048900041020CBF40F4E0016FF00041002070477E
:1048A00000F0004100020AD0B0FA80FC00FA0CF0DF
:1048B00001F16051A1EB0C5101EBD0214005704793
:1048C00001F000428B1AA3F16051B1F5801F0ADBA1
:1048D000B1F17F6F1FD242EAC102C10071F1004104
:1048E00042EB507070470B15C3F10903212B10D216
:1048F000890241EA905180020128494141F000417A
:1049000021FA03F0C3F12003994071F100415041B5
:104910007047100070476FF0000013EB103F5CBF52
:10492000000E42EAC05070470CB430B583B00A465E
:1049300006A90291044600250194009502AB01A945
:10494000084878441E30FBF71FFC019A15700028B8
:104950004EBF04460198041B204603B030BC5DF8EE
:104960000CFB00BF4BCAFFFF0EB4C0B5024603A844
:1049700000210190009101AB0121044878440C30E2
:10498000FBF702FC06BC5DF810FB00BF2F0A00001D
:104990002DE9F843040016D02078DFF8F462C1074F
:1049A00013D5B06800F00C00042807D0B06800F000
:1049B0000C0008283DD1706841023AD53068810367
:1049C00003D56068002800F05E812078B14F810730
:1049D00019D5B06810F00C0F07D0B06800F00C00CB
:1049E00008285BD17068410258D43068810703D52C
:1049F000E068012840F047813168206921F0F80122
:104A000041EAC00131602178080779D56069A2497F
:104A1000002868D001220A60FDF7A0FF0546706FEC
:104A200081076DD4FDF79AFF401B0228F7D90320B8
:104A30002CE16068B0F5803F04D1306840F48030EC
:104A4000306011E0B0F5A02F306806D140F480202E
:104A50003060316841F4803105E020F4803030600E
:104A6000316821F480213160606858B1FDF776FF2C
:104A7000054630688103A8D4FDF770FF401B652808
:104A8000F7D3D4E7FDF76AFF0546306881039CD56C
:104A9000FDF764FF401B6528F7D3C8E7E068A8B1BD
:104AA00001213960FDF75AFF05463068810705D4BA
:104AB000FDF754FF401B0228F7D9B8E73068216999
:104AC00020F0F80040EAC10030609CE73860FDF754
:104AD00045FF05463168880795D5FDF73FFF401B28
:104AE0000228F7D9A3E70860FDF738FF0546706F85
:104AF000810705D5FDF732FF401B0228F7D996E75D
:104B0000207841075FD5306C0025C1000AD400959C
:104B10000125316C41F080513164306C00F08050DF
:104B200000900098DFF87481D8F80000C10513D414
:104B3000D8F8000040F48070C8F80000FDF70EFFC0
:104B40008146D8F80000C10506D4FDF707FFA0EBA9
:104B500009000228F5D96AE7A068012805D00528D0
:104B6000306F06D140F004003067306F40F0010034
:104B700005E0400840003067306F20F004003067E7
:104B800041F28938A06860B1FDF7E8FE8146306FD8
:104B9000810713D4FDF7E2FEA0EB09004045F6D3F0
:104BA00045E7FDF7DBFE8146306F810706D5FDF74F
:104BB000D5FEA0EB09004045F6D338E71DB1306CB7
:104BC00020F080503064A06900285ED0B16801F008
:104BD0000C0108293AD002282AD100203866FDF7B6
:104BE000BDFE05463068810105D5FDF7B7FE401BC7
:104BF0000228F7D91BE7E069216A626A0843A16AC3
:104C0000490840EA8210491E40EA0140E16A40EA50
:104C10000160706001203866FDF7A0FE0446306830
:104C2000810132D4FDF79AFE001B0228F7D9FEE677
:104C300000203866FDF792FE04463068810124D5D5
:104C4000FDF78CFE001B0228F7D9F0E601281AD0E8
:104C50007068E26900F48001914202BF00F03F01F8
:104C6000226A91420FD147F6C071626A01409142B7
:104C700002BF00F44031A26A914202BF00F07060AE
:104C8000E16A884201D0012000E00020BDE8F28303
:104C90000038024000004742800E4742007000404A
:104CA00062F30F2262F31F42401810F0030308D092
:104CB000C91A1FD3DB0748BF00F8012D28BF20F811
:104CC000022D130030B414461546103928BF20E9D0
:104CD0003C00FAD8490728BF20E90C0048BF40F83B
:104CE000042D890028BF20F8022D48BF00F8012DAF
:104CF00030BC7047C91818BF00F8012DCB0728BF7A
:104D000000F8012D704700000901020002D4294873
:104D100081547047284B02F00F021A4402F8041C19
:104D20007047264B19684FF6FF020002114000F44D
:104D3000E0600843224908431860704770B51F4B74
:104D40001C68C4F302230124C3F10705052D2EBFFF
:104D50000F2504FA05F56D1E1E1D072E34BF002316
:104D6000DB1E2940994004FA03F3BDE870405B1E46
:104D70001A401143C8E7010007D4012200F01F01C7
:104D8000104B8A40400943F82020704710B5401E60
:104D9000B0F1807F01D3012010BD0B4C60600F216A
:104DA0004FF0FF30FFF7B0FF0021A1600720206027
:104DB000002010BD00E400E018ED00E00CED00E084
:104DC0000000FA0500E100E010E000E070B50446E4
:104DD000FDF7C4FD06460CB9012070BD04F1340591
:104DE0000020287002216970206802685208520071
:104DF000026022681068C1070AD5FDF7AFFD801B6D
:104E00000628F6D32020286203216970032070BD94
:104E10001368DFF8B40261680340A0680B43E168DF
:104E2000034320690B4361690343A0690B43E169B4
:104E30000343206A0B43616A0343042903D1E16AF7
:104E4000206B01430B43136023685A69606AD208E0
:104E5000042840EAC2020AD1A66AE16A324331B1AB
:104E6000A06988B9002E18BF022E1FD016D35A6130
:104E7000204600F055F9A96A3F228A40826000204E
:104E800028620121697070BDB0F5005F0AD1032E60
:104E9000EDD8DFE806F00D0B0D03E8E7B1F1C07FB8
:104EA000E5D105E0022E03D9F61EE0D1C801DED51A
:104EB000402129620120687070BDF8B5044604F1F4
:104EC000340600253078776A012801D10220F2BD2E
:104ED00001203070707801281CD10220707035627A
:104EE000204600F00DF9B06A3F2101FA00F0B860E9
:104EF0002068016841F016010160F06820B1206867
:104F0000016841F0080101602068016841F0010179
:104F1000016001E0357002252846F2BD90F8351099
:104F2000022903D08022426501207047052180F8C4
:104F30003510006802685208520002600020704775
:104F40002DE9FC41044604F1340600205F4900903D
:104F50004FF41650776A0A683D68B2FBF0F8B06A01
:104F6000082100F0B6F80ED02068026853070AD571
:104F7000026822F004020260B06A8140B960316ABE
:104F800041F001013162B06A25FA00F1CA070BD580
:104F900021684A69110607D5012202FA00F0B860BB
:104FA000306A40F002003062042100F091F808D02D
:104FB00021680A68930704D5B860306A40F004009D
:104FC0003062102100F084F81BD021680A681307B2
:104FD00017D5B860206801684A0307D50068010347
:104FE0000BD5716969B1204688470AE00168CA0596
:104FF00003D4016821F008010160F16809B120467D
:105000008847B06A202100F064F83FD021680A6820
:10501000D3063BD5B8602068717805291CD1026899
:1050200022F01602026000F058F8F068002804BF71
:105030007069002801D000F05CF83F22B06A82401D
:10504000BA600021317001227270F169002939D0F3
:105050002046BDE8FC41084701684A0307D50068BF
:1050600001030FD4316989B1204688470EE00168F9
:10507000CA0507D4016821F01001016000203070DA
:1050800001227270B16809B120468847306AC8B100
:10509000306AC10710D50520707000F024F8009820
:1050A000401C8045009003D320680168CA07F6D4ED
:1050B0000020307001217170B16919B12046BDE83E
:1050C000FC410847BDE8F3813F8010F02801002033
:1050D000B06A01FA00F0054270472068416921F08A
:1050E00080014161704720680168490849000160FA
:1050F00070472068016821F00801016070470000D6
:1051000030B50468256825F48025256063608068D3
:10511000402802D1A260E16030BDA160E26030BDF4
:1051200030B5016808A401F0FF02103A1823B2FB61
:10513000F3F2890A8902A55CC565042A28BF091D06
:105140008165806D30BD0000000610160006101647
:10515000704770477047704781B000200090002270
:105160000A48416841F480414160416801F480414E
:10517000009100990092036843F080530360006837
:1051800000F080500090009801B070474038024015
:1051900070B500F13C031A78012A01D1022070BDDC
:1051A00001221A7002245C7005686E68AC680A6897
:1051B00026F0700616436E6002681148824218BFDE
:1051C000B2F1804F11D00F4882421CBF0E4DAA424F
:1051D0000BD00E4882421CBF0D4DAA4205D00D488F
:1051E00082421CBF0C4DAA4204D1486824F08004BE
:1051F00004439460012159700020187070BD0000B4
:10520000000001400004004000080040000C004085
:105210000004014000400140001800407047704702
:1052200070477047F0B402461068956813185068CC
:1052300003EB5004C0071CD54D441AE013F8017B62
:1052400005F8017B491EF9D198B113F8011BC6F38B
:105250008106032E08BF13F8016B01EB06214942BA
:10526000801C294405D011F8016B05F8016B401E24
:10527000F9D1A3420ED013F8016B16F0030104BF5D
:1052800013F8011BC91C30090F28DBD113F8010BDF
:105290000F30D7E7F0BC02F10C0070477047FEE713
:1052A000FEE7FEE7FEE770477047704700F018B86A
:1052B0000748FDF7C9BF4FF48050FDF738BE0548D9
:1052C000FFF73EBE0448FFF73BBE0448FFF738BE79
:1052D00080040020B4020020F401002054020020C9
:1052E0000248416802788A18426070471C01002019
:1052F0000448054A016841F4700101604FF0006004
:105300001060704788ED00E008ED00E0000000004C
:1053100000000000010203040607080910B5074950
:1053200079441831064C7C44163404E00A68081DA0
:10533000114488470146A142F8D110BD2C0000005D
:10534000480000004EF68851CEF20001086840F493
:1053500070000860BFF34F8FBFF36F8F4FF0007086
:10536000E1EE100A70470000E7BEFFFFD002000028
:10537000F401002000000000ADFEFFFFA8010000C6
:10538000960100000000002000F00DF8002801D078
:10539000FFF7C4FFAFF300800020AFF30080FDF7FC
:1053A000EDFA00F002F80120704700F001B80000AB
:1053B00007463846FCF78AFDFBE738B504460D463C
:1053C000284600F005F8A84218BF0024204632BD48
:1053D0000149FDF7C9BA00BFAC0100200148804770
:1053E00001480047F1520008ED530008AFF3008078
:1053F000FFF7A8FFFFF7C8FF000000000102030449
:10540000FFF7FEBFFFF7FEBFFFF7FEBFFFF7FEBFD0
:10541000FFF7FEBFFFF7FEBFFFF7FEBFFFF7FEBFC0
:10542000FFF7FEBFFFF7FEBFFFF7FEBFFFF7FEBFB0
:10543000FFF7FEBFFFF7FEBFFFF7FEBFFFF7FEBFA0
:10544000FFF7FEBFFFF7FEBFFFF7FEBFFFF7FEBF90
:10545000FFF7FEBFFFF7FEBFFFF7FEBFFFF7FEBF80
:10546000FFF7FEBFFFF7FEBFFFF7FEBFFFF7FEBF70
:10547000FFF7FEBFFFF7FEBFFFF7FEBFFFF7FEBF60
:10548000FFF7FEBFFFF7FEBFFFF7FEBFFFF7FEBF50
:10549000FFF7FEBFFFF7FEBFFFF7FEBFFFF7FEBF40
:1054A000FFF7FEBFFFF7FEBFFFF7FEBFFFF7FEBF30
:1054B000FFF7FEBFFFF7FEBFFFF7FEBFFFF7FEBF20
:1054C000FFF7FEBFFFF7FEBFFFF7FEBFFFF7FEBF10
:1054D000FFF7FEBFFFF7FEBFFFF7FEBFFFF7FEBF00
:1054E000FFF7FEBFFFF7FEBFFFF7FEBFFFF7FEBFF0
:1054F000FFF7FEBFFFF7FEBFFFF7FEBFFFF7FEBFE0
:10550000FFF7FEBFFFF7FEBFFFF7FEBFFFF7FEBFCF
:10551000FFF7FEBFFFF7FEBFFFF7FEBFFFF7FEBFBF
:10552000FFF7FEBFF206000110030B0200004B0460
:1055300012930412BA0410030F030000700412DB6C
:1055400004100B160400002B2B2B204D656E7520CC
:105550000910090A0D204C203A204C4544200B121A
:10556000430B20014344530B1001307E370D2003C1
:105570005049414E4F0F12540D200974656D7065EE
:1055800072617475726513100970757368206275A5
:1055900074746F6E1D100273746F7016F2760001D2
:1055A000520189221008F0050724F400861500082E
:1055B0000452FF01E3B6141410010000560C214CF4
:1055C000F002172C010020DC20022D1300082C43D0
:1055D0001B133C210110070204010168030020B8DD
:0F55E00004526804211B610812F060F212DC64AF
:04000005080053EDAF
:00000001FF
