:020000040800F2
:10000000D004002051350008ED340008EF3400081A
:10001000F1340008F3340008F53400080000000053
:10002000000000000000000000000000F73400089D
:10003000F934000800000000FB340008FD3400081B
:100040007D350008813500088535000889350008B0
:100050008D35000891350008953500089935000860
:100060009D350008A1350008A5350008A935000810
:10007000AD350008B1350008B5350008B9350008C0
:10008000BD350008C1350008C5350008C935000870
:10009000CD350008D1350008D5350008D935000820
:1000A000DD350008E1350008E5350008E9350008D0
:1000B000ED350008F1350008F5350008F935000880
:1000C000FD3500080136000805360008093600082D
:1000D0000D360008113600081536000819360008DC
:1000E0001D3600082136000825360008293600088C
:1000F0002D3600083136000835360008393600083C
:100100003D360008413600084536000849360008EB
:100110004D3600085136000855360008593600089B
:10012000013500085D3600086136000865360008B4
:100130006936000800000000000000006D3600086D
:100140007136000875360008793600087D360008DB
:100150008136000885360008893600088D3600088B
:100160009136000895360008993600089D3600083B
:10017000A1360008A53600080000000000000000BD
:10018000A9360008AD3600082DE9F14FB0B092460F
:1001900004910DF142013A9A129199464A70002059
:1001A0000AE01AF8011B0498309A9047002804903E
:1001B00000F018810D98401C0D909AF8000050B185
:1001C0002528EED1002100220791089209910A9278
:1001D0000B910C9204E00D9800F04EBE41F001012D
:1001E0001AF8010F2028F9D023280CD02B2804D08E
:1001F0002D2805D0302809D00BE041F00201EFE7AF
:1002000041F00401ECE741F00801E9E741F0100199
:10021000E6E72A280FD1D9F8002052F8040BC9F8D4
:10022000002000280F9003D540420F9041F00401B8
:100230000AF1010A14E00F92DFF8C03B0AE00F98C0
:10024000984205DA00EB800402EB4402303A0F9248
:100250000AF1010A9AF80020A2F130000A28EED330
:100260009AF800002E2803D04FF0FF320E9229E0BA
:100270001AF8010F2A2809D1D9F8000050F8042BE8
:10028000C9F800000E920AF1010A1BE02D280CBFEC
:100290000AF1010A002000220E92DFF8604B0BE009
:1002A00040B90E9AA24205DA02EB820503EB450340
:1002B000303B0E930AF1010A9AF80030A3F13002A4
:1002C0000A2AEDD3ADF840100FF634309AF800103A
:1002D00000F0B2FF08B11AF8010B8DF842009DF84A
:1002E0004200682805D19AF8000068280CD16221E4
:1002F00006E06C2804BF9AF800006C2804D1712134
:100300008DF842100AF1010A1DA806901AF801BBE7
:10031000BBF125012DD01C3900F06181091F022994
:1003200040F25D810E392AD0491F00F09D840939C1
:1003300000F05581891E00F03385491E00F0DF84EE
:10034000491E022940F24B81091F00F0D884491F41
:1003500000F0BA80491E00F08784491E65D0C91E8E
:1003600021D0891E00F08084C91E00F07D8400F039
:1003700036BD25238DF87430012107912AE06C20C9
:100380008DF84200D9F8000050F8042BC9F800009D
:10039000002A43D11299487800283DD04FF0FF340D
:1003A0000FF6642012E09DF842006C28EAD0D9F8DC
:1003B000000050F8044BC9F800000594D4B9129914
:1003C000487898B14FF0FF340FF6582000F056FFF0
:1003D000201A07D130981DAA02A900F050FD00286C
:1003E0007FF5EBAE4FF0FF3000F046BD0FF650202A
:1003F0000590EFE70E9D002D04D5204600F05EFF2E
:10040000044607E02A46204600F078FF002814BF83
:10041000041B2C460894DDE70FF62822309802A929
:1004200000F0B3FD0028D5D5DCE7D9F8001051F86D
:10043000040BC9F8001020F00004002121F0FF3562
:100440001DABCDE902450593DDE9022306993C2465
:1004500013B90AB90E9898B102F00F053035641E31
:10046000EEB23A2EA8BF2735120942EA03721B09E1
:100470000D5508BF002A03D005980D19A842EBD3EB
:1004800008190590C4F13C020E980892824209DADC
:10049000BDF84010821A4FF6EF7001400A92ADF895
:1004A000401097E7002895D59DF8400000F0140013
:1004B00010288FD10F9B07990A985B1A1B1A9A1A5A
:1004C000002A87DD0A9285E71299487820B14FF01B
:1004D000FF340FF6741079E79DF84200622862D06D
:1004E000682819D06A2840D06C2806D071284DD0D1
:1004F00074282DD07A281ED064E0D9F8001051F865
:10050000040BC9F8001020B94FF0FF340FF650105B
:100510005CE70D9901605DE7D9F8001051F8040B14
:10052000C9F8001020B94FF0FF340FF634104DE732
:100530000D9901804EE7D9F8001051F8040BC9F865
:1005400000100028E5D14FF0FF340FF614103DE7FE
:10055000D9F8001051F8040BC9F800100028D8D1C0
:100560004FF0FF340FF6F80030E7D9F8001051F8DB
:10057000040BC9F8001020B94FF0FF340FF6E0006B
:1005800024E70D9AD317C0E9002323E7D9F8001018
:1005900051F8040BC9F800100028F2D14FF0FF34D5
:1005A0000FF6BC0012E7D9F8001051F8040BC9F897
:1005B000001020B94FF0FF340FF6A40006E70D99A4
:1005C000017007E7D9F8001051F8040BC9F80010C2
:1005D00000289ED14FF0FF340FF68400F6E6D9F8DC
:1005E0000020D21D22F00702C9F80020D2E9000144
:1005F0000832C9F80020CDE90201C80F02D00798DF
:100600002D210AE0BDF84000810702D507982B2173
:1006100003E0C00705D5079820211DAA1154401CEE
:1006200007901DA807994BF020024318DDE902014D
:10063000CDE92C01612A059313AC0BD00E9800284C
:1006400002D506200E9005E001BF4BF02000672880
:1006500001210E91DDE9020148004015401C0A46C7
:1006600011D109030FD0ABF1610503201A2D0890B9
:1006700002D20FF6783101E00FF6743103221846EA
:1006800000F068FEA6E650B9120308D1ABF161058F
:1006900003201A2D089016D30FF65C31EEE7DDE942
:1006A0000201CDE92E01DDE92E2323F00047B7F545
:1006B000801F22F000060DD20022002F08BF002E5E
:1006C000009203D116E00FF62C31D7E76A4600F00E
:1006D00095FE0FE0DFF8C40ADFF8C41A00EB1750EC
:1006E0000090DDE92E234FF0FF301940DFF8B47A97
:1006F00010403943CDE902014BF0200061280DD1B3
:10070000059830210170821CBBF1610F05920CBF6E
:100710007821582141700798801C0790DDE902017B
:1007200020F0000231F0004308BF002A02D1002669
:10073000002563E14BF02008B8F1610F40F0B48070
:100740000E98002847BF21210191401C0190019F74
:10075000DDE92C017F1C00220023DDE9024500F0C9
:1007600085FE00998DF84C2038BF85F00045091FA3
:10077000002F00910DF14D0653DD20462946002241
:10078000002300F08BFE4CD24800400D00F11C030A
:1007900012D0002B10DD40F2FF70834206DBDFF841
:1007A000081A05F000421143002011E06FF31E51BA
:1007B00041EA035120460BE024F0000035F00041EF
:1007C00008BF00280FBF29461C22294600F07EFEE4
:1007D00004460D4600F018FFFF1F002F804609DD7C
:1007E00000F030FF02460B462046294600F03CFF51
:1007F00004460D46F01D0721B8F1000F0CDD491E1F
:100800005EBF08F00F0200F8012D4FEA2818F3D55B
:1008100002E0002200F8012D491EFAD5C61D002F66
:10082000ABDC0DF14D00361A01988642D8BF304638
:1008300000280DF14D0430D4B04206DA0DF14D011F
:100840000A5C082AA8BF0F2100DA0021024613AB78
:10085000134400E0401E13F80159521E8D42F9D096
:100860000F2904D10DF14D018B5C5B1C8B54002AC8
:1008700004D50099091D13AC401C0091411E0CD4F5
:100880006218ABF13A0613783033DDB23A2DA8BFC7
:10089000F318491E02F80139F5D50E99002940F1E7
:1008A000AB80421E0E92A7E00099DFF8002947F2C4
:1008B0009750414391FBF2F2DDE92C45009225F07F
:1008C0000045D2F1070204DD2046294600F042FC33
:1008D0000BE052420020DFF8D81800F03BFC024643
:1008E0000B462046294600F031FF0446B8F1660F5A
:1008F0000E9806BF009F0A3706273F18142FC8BF5F
:10090000142730200D468DF84C000DF14D06002FB8
:1009100034DD2046294601F03DF801460A4606F13D
:10092000080304200A26B2FBF6F606EB860EA2EBBD
:100930004E02303203F8012C0A22B6FBF2F202EB2F
:10094000820EA6EB4E063036401E03F8026DE9D14A
:10095000083F002F03F10806D9DD084601F02EF804
:1009600002460B462046294600F07EFE0022DFF8B4
:10097000443801F031F804460D46CAE70DF14D0048
:10098000361A0DF14D0404E00098401E761E0090CA
:10099000641C20783028F7D0B8F1660F02D1009996
:1009A000491C04E0B8F1650F0CBF012100210E982D
:1009B00008188642B8BF701E00281DD4B04204DA61
:1009C000215C3429C8BF392100DC30210246631E76
:1009D0009D1800E0401E15F80169521E8E42F9D0A4
:1009E000392902D1A15C491CA154002A04D50099DF
:1009F000491C1C46401C00910646009D0E9F30B2CB
:100A0000002802DC01260FF2F4744BF02000662867
:100A100008BF6D1C15D067280FFA85F841D118F171
:100A2000040F44DBB84542DA9DF840006D1C010715
:100A300003D430B2B842B8BF074628B23F1A48BF05
:100A400000270FFA85F8B8F1000F00F3AF8008987F
:100A5000411C0891302205990A54002F03DC9DF8AF
:100A60004000010705D50898411C08912E220599E0
:100A70000A5417EB080FB8BF7D4228B2C51932B22D
:100A8000414295420B91B8BF2E46059B089836B25D
:100A9000099632462146184400F05CFCAD1B0C95CB
:100AA000CCE0BBF1610F15D14FF0700B17E030B205
:100AB000B84204DA9DF840100A0758BF07467F1E67
:100AC00048BF0027BBF1670F14BF4FF0450B4FF035
:100AD000650B04E0BBF1410F08BF4FF0500B0898C5
:100AE000411C0891002F059914F8012B0A5403DCCE
:100AF0009DF84000010719D50898411C08912E2245
:100B000005990A54002F11DD761E30B287420598F0
:100B1000089BB8BF3E4632B22146184400F01AFC8A
:100B2000089836B23018BF1B08900B9705980899A3
:100B30000844B8F1000F80F800B003D42B224270B3
:100B4000821C04E02D2145464170821C6D4200212B
:100B50002CAB28460AE004460A2094FBF0F000EB98
:100B60008005A4EB450403F8014B491C00B20028A2
:100B7000F1DC012906DC4BF02000652804BF3020A1
:100B800002F8010B00292CAB08D1302002F8010B30
:100B900006E0491E585C303002F8010B0029F8DCF1
:100BA000059908980844121A099247E030B229B210
:100BB00088421BDA0598089B32B22146184400F09F
:100BC000C9FB089936B27118A8EB0606002F0891E8
:100BD0000B9603DC9DF84000020705D5059A2E20F0
:100BE00050540999491C09910C9727E00598089BD6
:100BF0002AB22146184400F0ADFB0898761B404409
:100C0000002F089003DC9DF840100A0704D5411C12
:100C100008912E2205990A5430B287420598089B04
:100C2000B8BF3E4632B204EB0801184400F092FB14
:100C3000089836B23018BE1B08900B969DF84000FD
:100C400000F0140010287FF4C5AB079A08990B98A0
:100C50008A18099982180C988A1882180F9882426B
:100C6000BFF6B8AB821A2DE49DF84200622808D086
:100C700068280ED06A2814D06C281FD0712810D094
:100C80001CE0D9F8001051F8040BC9F80010C0B2EC
:100C90001AE0D9F8001051F8040BC9F8001080B21E
:100CA00012E0D9F80020D21D22F00702C9F8002076
:100CB000D2E900010832C9F8002006E0D9F8001096
:100CC00051F8040BC9F800100021CDE902019DF88C
:100CD000400001075AD5DDE90223002B08BF002A96
:100CE00054D04BF02000782850D107981DA930220D
:100CF0000A54401C431C079301F800B046E09DF8DD
:100D00004200622808D068280ED06A2814D06C28C7
:100D10001FD0712810D01CE0D9F8001051F8040B36
:100D2000C9F8001040B21AE0D9F8001051F8040BCD
:100D3000C9F8001000B212E0D9F80020D21D22F04C
:100D40000702C9F80020D2E900010832C9F80020E2
:100D500006E0D9F8001051F8040BC9F80010C117CB
:100D6000CDE90201002902D507982D210AE0BDF83E
:100D70004000810702D507982B2103E0C00705D565
:100D8000079820211DAA1154401C07901DA80799FF
:100D90000144059102A8594600F057F9FFF71ABB24
:100DA0009DF842006C280BD001210791D9F8000072
:100DB00050F8041BC9F800008DF87410FFF70ABB47
:100DC000D9F8000050F8041BC9F8000013914FF047
:100DD000FF320E920021149113AAFFF71FBB2521A9
:100DE0000122BBF1000F8DF8741007923FF4F2AAB4
:100DF0008DF875B00221FFF7C0BA0000CBCCCC0C47
:100E0000686A6C747A4C00007072696E74665F7305
:100E10003A2062616420256C7320617267756D658C
:100E20006E7400007072696E74665F733A2062615E
:100E30006420257320617267756D656E7400000013
:100E400000000000000000007072696E74665F733D
:100E50003A20256E20646973616C6C6F776564005D
:100E60007072696E74663A2062616420256E20613A
:100E70007267756D656E740031B0BDE8F08F2DE955
:100E8000FC410F46064690467A6B7869396ABC6A1F
:100E9000121AB869521A796A121AF869521A121A91
:100EA00097F83800141B41070FD42020002C8DF830
:100EB00000000ADD254601236A463946304600F027
:100EC0007DF900285DD16D1EF5D17B69424639461A
:100ED000304600F073F9002853D130208DF800001F
:100EE0003D6A002D09DD01236A463946304600F08F
:100EF00065F9002845D16D1EF5D1BB69FA68394600
:100F0000304600F05BF900283BD130208DF800001E
:100F10007D6A002D08DD01236A463946304600F01F
:100F20004DF970BB6D1EF6D1F868B969FB694218BE
:100F30003946304600F042F918BB30208DF80000E9
:100F4000BD6A002D08DD01236A463946304600F0AF
:100F500035F9B0B96D1EF6D197F8380041070DD5B7
:100F60002020002C8DF8000008DD01236A46394658
:100F7000304600F023F920B9641EF6D10020BDE808
:100F8000F6814FF0FF30BDE8F6812DE9F8470D46B8
:100F9000A3B02F6B002F8246904648BF6FF00047EA
:100FA00000F0EBFD696B401801AA0021C2E90011B5
:100FB000812828BF4FF0FF3044D289461EE0A74267
:100FC00030DB6869201881280BD30021696303AAEC
:100FD00029465046FFF753FF5FEA000922D400205C
:100FE000686103AB6E6922466946981900F0B2F950
:100FF000A6196E6158F8040BA0B13F1B002F11DD3C
:10100000D8F8001001AA684600F0BCFD0446002C88
:1010100005D4D8F800000028D1D1641ECFD54FF0F8
:10102000FF390EE0B9F1000F504604D103AA29465A
:10103000FFF725FF8146B9F1000F02D1002068615A
:101040006863484624B0BDE8F0872DE9FC430746B5
:101050006F293E6908BF082405D041F02000782898
:1010600014BF0A2410243C25D7E90023642918BFA3
:1010700069299046994605D1002B03D5D8F100087F
:1010800069EB4909B9F1000F08BFB8F1000F0CD1A5
:10109000386B50B9082C39D197F83800010735D58D
:1010A00030203B2586F83B0030E08DF800104046AC
:1010B00049462246E31700F067FD3032D0B26D1E7C
:1010C0003A28019504DB9DF80000A0F151018A182F
:1010D0007255404649462246E31700F055FD8046CA
:1010E0005FEA010908BFB8F1000F03D0F868711971
:1010F0008842DCD3082C09D197F83800010705D5C0
:10110000705D302802D06D1E30207055C5F13C0254
:10111000BA617119F960386B824208DA821A3A6250
:101120004FF6EF70398F01403987BDE8F38300280F
:101130000ED597F8380000F01400102808D17B6B0A
:101140007969386A5B1A1B1A9A1A002AC8BF3A6270
:10115000BDE8F3832DE9D04306460F4614464FF011
:101160000008DFF8549012E0E00707D542464B46EE
:101170003046394600F030FC06460F4640464946A8
:1011800042464B4600F028FC641080468946002CFD
:10119000EAD130463946BDE8D083000002FCFFFFAB
:1011A000FFFF0F800000E03F0000F07FA0860100FD
:1011B0000000F03F84D7974100002440F8B5054671
:1011C0000E4617461C4600205CB117F8011BB0689C
:1011D000A847B06030B1F06A401CF0620020641E85
:1011E000F3D1F2BD4FF0FF30F2BD00006E616E0032
:1011F0004E414E00696E6600494E4600300030B4E4
:10120000002513E050F8042BD30744BFA9F10103D4
:101210009A18091F042942F8045BFAD213468C0776
:1012200044BF15809B1CC90748BF1D7050F8041BA4
:101230000029E7D130BC7047C9B202788A421AB19E
:101240001CBF10F8012FF9E718BF0020704730B419
:101250000EE00268436802440830DC0744BFA9F18D
:101260000104E31852F8045B43F8045B091FF9D149
:1012700050F8041B0029ECD130BC704780B500B990
:1012800006A005490B681BB122220021984701E006
:1012900000F0FDFC222002BDC8000020636F6E73C9
:1012A000747261696E742068616E646C65723A2054
:1012B000626164206D6573736167650000F101030D
:1012C000810704D010F8011B820781B1FAD10268AE
:1012D000A2F10131914311F0803104BF50F8042F85
:1012E000F6E709BAB1FA81F100EBD100401CC01A4F
:1012F00070470268531C036011707047C9B28307BE
:1013000006D0521E22D310F8013B9942F7D11FE0BC
:10131000083A13D302F1040241EA012141EA0141F2
:1013200050F8043B121F21BF4B40A3F1013C2CEAB3
:10133000030C1CF0803FF3D0C9B2001F083210F834
:10134000013B521E28BF91EA030FF8D818BF0120B5
:10135000401E704762B38B0708D0521E11F8013B44
:1013600000F8013B00F024808B07F6D1830740F0A2
:10137000208000BF103A07D330B4B1E83810103ADB
:10138000A0E83810F9D230BC530724BFB1E80810E8
:10139000A0E8081044BF51F8043B40F8043BD207D2
:1013A00024BF31F8022B20F8022B44BF0B780370C6
:1013B0007047121F17D35B0009D151F8043B20F886
:1013C000023B1B0C121F20F8023BF6D20BE051F837
:1013D000043B00F8013B1B0A20F8023B1B0C121FC8
:1013E00000F8013BF3D238BF121D521E24BF11F882
:1013F000013B00F8013BF8D87047000010B51446D7
:1014000000F002F8226010BDC1F30A5343B14A0054
:1014100012F5001F28D2A3F2FE32A1EB0251704751
:1014200050EA410C20D001F0004C31EA0C01B1FA35
:1014300081F204BFB0FA80F3D2180B3AB2F1200364
:101440002CBF00FA03F1914041EA0C013EBFC2F10A
:10145000200C20FA0CF319439040524240F2FD3325
:10146000D21A01EB03517047002270474FF4001C61
:101470001CEB410F94BF1CEB430F09E041EA030C46
:1014800050EA4C0C52EA0C0C03D2994208BF90422D
:10149000704714BF8B428242704700004FF4001C1B
:1014A0001CEB410F94BF1CEB430F09E041EA030C16
:1014B00050EA4C0C52EA0C0C03D28B4208BF824219
:1014C000704714BF9942904270470000124254D4B2
:1014D00040F2FF7C1CEA11530FD0634531D09B18BA
:1014E00063453CBF01EB0251704701F0004141EA06
:1014F0000C510020AFF30080704750EA410320D028
:1015000001F0004C91EA0C011CD0B1FA81F30B3BC5
:101510009A420DD9D21A994051EA0C01C3F1200C1C
:1015200020FA0CFC61449840531C40F2FF7CD7E742
:10153000914041EA0C01C2F1200C20FA0CF319434E
:1015400090407047B0FA80F31533202BE0D3202A67
:10155000EED3203A203B9A4209D9D21A00FA03F17D
:1015600041EA0C010020531C40F2FF7CB8E700FA6E
:1015700002F141EA0C0100207047524240F2FF7C28
:101580001CEA11530DD06345DBD0B2EB030C3CBF1A
:10159000A1EB025170470CF1010221EA035141F421
:1015A000801150EA410CCCD001F0004C352A27DCE8
:1015B00030B481EA0C01B2F1200309DAC2F1200350
:1015C000044601FA03F5D0402843D1409C400CE08A
:1015D000C3F12002450020FA03F418BF44F00104CF
:1015E00021FA03F091400C43002174F1004550F1C1
:1015F000000051EB0C01244230BC7FF47BAF7047FC
:101600006146002076E70000C1F30A5340F2FE3243
:101610009B1A14DDD3F120034FEAE17208DDC90201
:1016200041EA505141F00040D84080185040704786
:1016300003F2E13010B1D24382F000407047002045
:1016400070470000C11768B14840401AB0FA80F2F4
:101650009040D21CC907C2F5846241EA025202EBF3
:10166000D02140057047000070B44FF0004591EA6A
:10167000030F40F10F836B40841A71EB030603D212
:10168000001BB141121973414FF4001C1CEB410FB8
:1016900034BF7CEB430442E00C0DA4EB1356352E13
:1016A0004FDC45EAC323DB0A45EAC121C912B6F182
:1016B00020050DDD63FA05F6EB4086EA03051242CC
:1016C00018BF45F00105C01851F100010CD213E01C
:1016D00062FA06F5F2405540F3415A40B340F340F8
:1016E0005A408018594107D349085FEA30005FEA41
:1016F000350528BF45F0010501F58011420875F157
:10170000004250F1000041EB04514E0016F5001F5D
:1017100070BC38BF70470020090D090570471CEBED
:10172000410F10D252EA43060BD0BCEB410F05D853
:101730000C0DAB43661E342EB6DD02E0AB438018C1
:10174000594170BC704770BC70470000F0B540F262
:10175000FF7581EA030C0CF0004C15EA11541DBF13
:1017600015EA1357AC42AF42E5E0BC41C1F31301A7
:10177000C3F31303801A994143F4801304D2641E07
:101780004000494180185941C90241EA5051B1FB1A
:10179000F3F603FB1611A2FB0675D7EBC020A94197
:1017A00002D2761E80185941C90241EA5051B1FB5C
:1017B000F3FE03FB1E11A2FB0E75D7EBC020A9415F
:1017C00003D2AEF1010E80185941890241EA9051CD
:1017D000760546EA8E2EB1FBF3F603FB1611A2FB4B
:1017E0000675D7EB8020A94102D2761E8018594198
:1017F000C90241EA50514EEA060EB1FBF3F603FB73
:101800001611A2FB0675D7EBC020A94102D2761EA5
:1018100080185941C90241EA5051B1FBF3F703FB6B
:101820001711A2FB0735D3EBC020A94167F10007D0
:101830000CBF004247F0010766F3D5274FEA1E317F
:10184000B80814F5806412DDBD0775F1004250EB55
:101850000E5051EB045111F5801F5CBF41EA0C01A1
:10186000F0BD4CF07F6141F0E0410020F0BDBD07CC
:101870006D0840EA0E5041F48011D4F10104B4F136
:1018800020060ADAC4F120060200E04001FA06F35D
:10189000E1401843B24015430EE0342C13DCC6F18E
:1018A000200445EA40056D0820FA06F2154321FAA6
:1018B00006F0A1400D43002175F1004250F10000F7
:1018C00051EB0C01F0BD00205FEA0C01F0BDCFB977
:1018D00092185B41B3FA83F704BFB2FA82F6BF19DC
:1018E0000B3FB7F120062FBF02FA06F3BB40C7F14A
:1018F000200622FA06F638BF3343BA401CB1E41979
:10190000641E33E77F4231F00041B1FA81F404BF35
:10191000B0FA80F6A4190B3CB4F120062FBF00FAF0
:1019200006F1A140C4F1200620FA06F638BF314383
:10193000A0403C1B1AE7AC421ABF05EA1357AF425E
:1019400012E050EA41061CBF52EA4306BFE750EAE4
:101950004107304661461CBF41EA0551F0BD52EADD
:10196000430C08BFC143F0BD00204FF4001616EB36
:10197000410F98BF16EB430F08BF16EB410F24BF72
:10198000C14305E016EB430F0CBF61464CEA05511D
:10199000F0BD0000400D491840EA81200CD2490DED
:1019A000A1F58061491C40F0004005DBD1F11F0129
:1019B00054BFC840C017704700207047014648B167
:1019C000B0FA80F18840C91CC1F58461090501EBBA
:1019D000D021400570470000B0B581EA030C0CF03F
:1019E000004C40F2FF7515EA11541DBF15EA13575C
:1019F000AC42AF4239E0E41923EA455343F4801383
:101A0000C90241F0004141EA505EC7021100A7FB44
:101A1000020200284FF00000EEFB01204FF0000111
:101A2000E3FB072118BF42F00102401800214941A1
:101A3000E3FB0E01A4F580640F0302D25200404183
:101A4000494154F101046CDD470872F1004250F144
:101A5000000051EB0451A1F580115CBF41EA0C017B
:101A6000B0BD4CEA05510020B0BD05EA1357AC42A9
:101A700014BFAF4241E050EA410E1CBF52EA430E90
:101A800002E061460020B0BD24423C441BD15FEA25
:101A9000070EF6D0090302BF01460020AEF1140E76
:101AA000B1FA81F7AEEB070401FA07FE0C37C7F174
:101AB000200100FA07F7C8404EEA000E23EA45531A
:101AC00043F48013A2E733F00043B3FA83F704BF73
:101AD000B2FA82FE77440B3FE41BB7F1200E2FBF12
:101AE00002FA0EF3BB40C7F1200E22FA0EFE38BFF9
:101AF00043EA0E03BA40641C82E750EA410E14BF69
:101B000052EA430E6FF000014FF4001717EB430F3A
:101B10008ABF194617EB410FB5E74CEA0551002083
:101B2000B0BDD4F10104B4F120070FDAC4F12007ED
:101B3000520828BF42F0010210FA07F501FA07F730
:101B4000E1BF2A43E0403843E1400FE0352C98DC08
:101B5000C7F1200452EA400220FA07F218BF42F00F
:101B6000010231FA07F0A1400A43002172F100425C
:101B700050F1000051EB0C01B0BD01207047000096
:101B800000F03DB90023FBE7D3BBD9B1B2F5803FEC
:101B90005BD2022A1ED98C46B1FBF2F102FB11C3C3
:101BA0001B0443EA1043B3FBF2FC02FB1C3380B27C
:101BB00040EA0343B3FBF2F002FB103240EA0C4070
:101BC00000237047022A05D98446B0FBF2F002FBDD
:101BD00010C270474AB105D100F0010249085FEA1E
:101BE0003000704700220023704700F011B90B004D
:101BF0000200002100207047F7D300220023704725
:101C0000904271EB030CF2D370B5B1FA81F4B3FAE0
:101C100083F52C1BA340C4F1200532FA05F63343AB
:101C2000A2405FF00046E64002E05B085FEA320255
:101C3000841A71EB030524BF204629467641F4D36C
:101C400002000B003000002170BD70B5B1FA81F4C4
:101C5000B2FA82F5C4F120046419B4F12006DAD393
:101C6000B2405FF00044F440002502E052085FEA11
:101C70003303C61A71EB020E24BF3046714664412D
:101C80006D41F3D302000B002000290070BD01203C
:101C900000F0C0B8841A71EB030604D26E40001B3A
:101CA000B141121973414FF4001C1CEB410F34BFBA
:101CB0007CEB430683E00C0DA4EB1356362E00F3A9
:101CC0007C80012E45EAC32341DC43EA525312BF14
:101CD000D20292025B08240545EAC12141EA505133
:101CE000D2EBC020994125D407D1B0FA80F610FA82
:101CF00006F162D00020203608E0B1FA81F6B1404A
:101D0000C6F1200220FA02F21143B0404FEAF47407
:101D1000B4EB465434F001064FEA74040AD8D6F501
:101D20000016760D04F00044F04061FA06F25040CF
:101D3000F1404840C00A40EA415021F0004128BF2C
:101D40005FEA500550F1000044EBD12135E0DB0A99
:101D500045EAC121C90AB6F120050EDD42EA024278
:101D6000120CC5F1200603FA06F6EB4042EA06051E
:101D70006D42984161F100010DE062FA06F5F24012
:101D8000554063FA06FC82EA0C02F3405A406D4269
:101D9000904161EB030111F4801F05D1641E6205BF
:101DA00002D06D004041494121F48011430875F192
:101DB000004350F1000041EB045170BC70471CEB34
:101DC000410F15D223F0004352EA43060BD04FEAED
:101DD0004C0CBCEB410F04D80C0D661E342EB7DD45
:101DE000EBE7801A994150EA410608BF0021E4E779
:101DF00008BF1CEB430F28BF6FF00001DDE7B1F512
:101E0000807F02D34FF0FF30704701700120704790
:101E10007047000080B5AFF30080024A110018201F
:101E2000ABBEFBE72600020070B5044600250CB9E6
:101E3000012070BD04F13006306920B9204600F061
:101E40005DFA756135733069C10600F192803069C1
:101E5000DFF8A01320F4885040F0020030610868D9
:101E600020F4403008600A68606802430A60206815
:101E7000416821F48071416020684168226941EA2B
:101E8000022141602068416821F040714160216871
:101E90004A68A06802434A602068816821F40061B2
:101EA000816021688A68E06802438A602068A16ACC
:101EB000DFF844239142816821F0706181600CD089
:101EC00021688A68A06A02438A6000F05BF8216892
:101ED0008A68E06A02438A6001E000F053F82068F3
:101EE000816821F0020100F049F8227E41EA4201B6
:101EF000816094F820002168002848680FD040F4E1
:101F0000006048602068416821F4604141602068B9
:101F10004168626A521E41EA4231416002E020F4A7
:101F2000006048602068C16A21F47001C1622068C5
:101F3000C16AE269521E41EA0251C16220688168A9
:101F400021F4007100F01AF8327841EA422100F0E1
:101F500015F821F4806100F011F8626941EA8221EC
:101F600081607561316921F0020141F00101316147
:101F700000E0012500203073284670BD8160206894
:101F8000816870472068816821F040518160704706
:101F9000126802F01F02102A7047016841F0804168
:101FA00001607047816841F0804181607047F8B5F9
:101FB0000446002004F13C0300901D78012D01D15E
:101FC0000220F2BD0120187020688568EE070DD44C
:101FD00085688F4E45F0010585608E480568B5FB24
:101FE000F6F606EB4606009600F0FBF82568A868B2
:101FF000C60761D55F688448074047F480775F6013
:102000006868450505D5586820F4005040F48050B4
:1020100058605868C50446BF986820F00600002044
:10202000986000251D70A36B0FF2ED10D863A36BB1
:102030000FF24D201864A36B0FF24D20D8646FF09F
:102040002200256828602068436843F0806343606D
:1020500013462068856845F4807585600A462068C7
:1020600000F14C01A06B00F01AFA2068614A674940
:10207000136813F01F0F16D188420DD05F498842B4
:1020800004D1126812F01F0F16D105E05C49884296
:1020900012D1FFF77DFF0FD2816811F0405F0BD1A5
:1020A000FFF780FF08E0884202BF5648016811F040
:1020B000405F01D1FFF771FF0020F2BD78B5024605
:1020C0000020009092F83C30012B01D1022072BD1B
:1020D000012082F83C0007240B6810680A2B12D3F9
:1020E0000A3BC56803EB43039C4025EA0404C46033
:1020F000C3680D688C68A5F10A0606EB4606B44075
:102100002343C3600FE0056903EB430304FA03F3C1
:1021100025EA0303036103690D688C6805EB450537
:10212000AC40234303611F244B68072B0CD25B1E7A
:10213000456B00F050F84463436B4D680C886E1E8D
:1021400000F044F843631BE00D2B0CD2DB1F056B42
:1021500000F041F80463036B4D680C88EE1F00F03B
:1021600035F803630CE00D3BC56A00F034F8C46237
:10217000C36A4D680C88A5F10D0600F027F8C3620C
:10218000224B98421DD10C681A48122C03D10368C7
:1021900043F4800303600B68102B18BF112B10D180
:1021A000036843F4000303600868102809D1194943
:1021B000174C0B68B3FBF4F40A204443009400F07E
:1021C00010F8002182F83C10002072BD06EB860654
:1021D000B4402343704703EB83039C4025EA040487
:1021E000704702E00098401E009000980028F9D146
:1021F00070470000042301400100000F002101404E
:102200000022014008200140FEF9FFFF00200140AC
:1022100040420F000C000020816B0A6C12F0500F3E
:1022200024D1086C40F4007008640A68906810F0CB
:10223000405F04BF087E002815D1D06A10F4700FEB
:1022400002D0906843050ED4506820F02000506002
:10225000086C20F480700864086CC20403D4086C15
:1022600040F001000864084600F052BA0A6CD30638
:1022700044BF084600F04DBA896BCA6C1047000095
:10228000806B00F047BA0000806B40210164426C13
:1022900042F00402426400F03CBA00001FB5102274
:1022A0000021684600F037FA3A4C3B4820604FF472
:1022B00080313A48A0626160012000220121E06182
:1022C00084F830006061A2602261217684F82020C9
:1022D000E262E2602046FFF7A7FD08B100F0AAFA2B
:1022E00000200121009001910322029269462046BC
:1022F000FFF7E4FE08B100F09DFA1FBD38B586B0C7
:1023000004461422002101A800F005FA21682248A1
:1023100081423DD100222248224D0092416941F480
:1023200080714161416901F48071009100990092CE
:102330000121036843F0010303600322006800F0F9
:102340000100009000981848019102920021039129
:1023500001A900F07FFA1548286000216960E96052
:102360004FF400604FF48061686129614FF4807020
:1023700000224FF40051E861AA60A9612A626A62F2
:10238000284600F015F808B100F054FAA563AC63D4
:1023900007B030BD70000020002001400100000F98
:1023A000303802401000002000000240106402405B
:1023B00070B5044600F040FB06460CB9012070BD24
:1023C00004F1340500202870022169702068026839
:1023D00052085200026022681068C1070AD500F056
:1023E0002BFB801B0628F6D320202862032169706E
:1023F000032070BD1368DFF8900261680340A06895
:102400000B43E168034320690B4361690343A069FF
:102410000B43E1690343206A0B43616A03430429C8
:1024200003D1E16A206B01430B43136023685A69AF
:10243000606AD208042840EAC2020AD1A66AE16AA8
:10244000324331B1A06988B9002E18BF022E1FD0C7
:1024500016D35A61204600F043F9A96A3F228A4008
:102460008260002028620121697070BDB0F5005FB4
:102470000AD1032EEDD8DFE806F00D0B0D03E8E7D7
:10248000B1F1C07FE5D105E0022E03D9F61EE0D1FF
:10249000C801DED5402129620120687070BDF8B501
:1024A000044604F1340600253078776A012801D10A
:1024B0000220F2BD01203070707801281CD102206A
:1024C00070703562204600F0FBF8B06A3F2101FAD7
:1024D00000F0B8602068016841F016010160F06802
:1024E00020B12068016841F008010160206801689E
:1024F00041F00101016001E0357002252846F2BD7E
:102500002DE9FC41044604F1340600205F490090A7
:102510004FF41650776A0A683D68B2FBF0F8B06A6B
:10252000082100F0B6F80ED02068026853070AD5DB
:10253000026822F004020260B06A8140B960316A28
:1025400041F001013162B06A25FA00F1CA070BD5EA
:1025500021684A69110607D5012202FA00F0B86025
:10256000306A40F002003062042100F091F808D097
:1025700021680A68930704D5B860306A40F0040007
:102580003062102100F084F81BD021680A6813071C
:1025900017D5B860206801684A0307D500680103B1
:1025A0000BD5716969B1204688470AE00168CA0500
:1025B00003D4016821F008010160F16809B12046E7
:1025C0008847B06A202100F064F83FD021680A688B
:1025D000D3063BD5B8602068717805291CD1026804
:1025E00022F01602026000F058F8F068002804BFDC
:1025F0007069002801D000F05CF83F22B06A824088
:10260000BA600021317001227270F169002939D05D
:102610002046BDE8FC41084701684A0307D5006829
:1026200001030FD4316989B1204688470EE0016863
:10263000CA0507D4016821F0100101600020307044
:1026400001227270B16809B120468847306AC8B16A
:10265000306AC10710D50520707000F024F800988A
:10266000401C8045009003D320680168CA07F6D457
:102670000020307001217170B16919B12046BDE8A8
:10268000FC410847BDE8F3813F8010F00C000020BA
:10269000B06A01FA00F0054270472068416921F0F4
:1026A0008001416170472068016849084900016064
:1026B00070472068016821F0080101607047000040
:1026C00030B50468256825F480252560636080683E
:1026D000402802D1A260E16030BDA160E26030BD5F
:1026E00030B5016808A401F0FF02103A1823B2FBCC
:1026F000F3F2890A8902A55CC565042A28BF091D71
:102700008165806D30BD00000006101600061016B1
:1027100070477047704710B5044610460A46014698
:10272000204600F08FF9204610BD000070B500F083
:10273000BDF900F02BF800F0D3F900F02BFAFFF709
:10274000ADFD384C384802222146FFF730FC00BF6F
:102750000FF2F40538A600F035FB0021002000F050
:1027600033FB0C21304600F03EFB22882946201D19
:1027700000F054FB0121002000F026FB201D00F09A
:1027800040FB4FF4FA7000F069FBE4E780B592B0CB
:102790003022002106A8FFF7BEFF1422002101A865
:1027A000FFF7B9FF002000904FF480331F48016805
:1027B00041F0805101600021006800F080500090DD
:1027C00000981B480091026842F480420260012296
:1027D000006800F48040009006A80099069202214B
:1027E0004FF480020C910D920421A8220E910F92B9
:1027F0000221042207931091119200F043FB022161
:102800000291002203920F204FF4A05101900491F5
:102810004FF480520592052101A800F0BBFC13B0D3
:1028200000BD0000B80000207000002040380240C9
:10283000007000407047000041444320504F4C4C12
:102840005445535400000000414443203A2025647D
:10285000000000002DE9F84F0D4600266B496C4A38
:102860000F23044601202F68B04000EA0708804586
:1028700040F0C1804FEA460C032707FA0CF76FEAD5
:10288000070E6F68012F18BF022F03D0112F18BF3A
:10289000122F12D1A768D5F80C900EEA070709FA93
:1028A0000CF949EA0707A760676827EA00006F6824
:1028B000C7F30017B74038436060E068AF680EEABE
:1028C000000007FA0CF73843E060B0006F68022F91
:1028D00018BF122F12D1F70804EB870700F01C096C
:1028E000D7F820A003FA09FB2AEA0B0AD5F810B0A2
:1028F0000BFA09F949EA0A09C7F8209027680EEA95
:10290000070E2F7907F0030707FA0CF747EA0E07BF
:1029100027606F68FF006ED5002700974FEA960C7E
:10292000176847F48047176000F00C00176807F439
:102930008047009703FA00FE009F364F57F82C702F
:1029400027EA0E0E344FBC4208BF002722D0334F77
:10295000BC4208BF01271DD0314FBC4208BF02272F
:1029600018D0304FBC4208BF032713D02E4FBC42B3
:1029700008BF04270ED02D4FBC4208BF052709D041
:102980002B4FBC4208BF062704D02A4FBC420CBFC5
:102990000727082707FA00F01E4F40EA0E0047F805
:1029A0002C006FEA08000F6800EA070C6F68FF034D
:1029B00048BF48EA0C0CC1F800C04F6800EA070C99
:1029C0006F68BF0348BF48EA0C0CC1F804C08F68A9
:1029D00000EA070C6F68FF0248BF48EA0C0CC1F818
:1029E00008C0CF6800EA070C6868800248BF48EA60
:1029F0000C0CC1F80CC0761C0F2E7FF633AFBDE86F
:102A0000F18F02B90904816170470000003C014068
:102A100044380240083801400000024000040240EF
:102A200000080240000C0240001002400014024066
:102A300000180240001C024001484068704700BF77
:102A40000000002062F30F2262F31F42401810F0D2
:102A5000030308D0C91A1FD3DB0748BF00F8012DB4
:102A600028BF20F8022D130030B414461546103943
:102A700028BF20E93C00FAD8490728BF20E90C000C
:102A800048BF40F8042D890028BF20F8022D48BF18
:102A900000F8012D30BC7047C91818BF00F8012D8F
:102AA000CB0728BF00F8012D7047000080B50B4808
:102AB000016841F400710160026842F480620260C2
:102AC000016841F480710160032000F030FC0020B7
:102AD00000F082FC00F0A0FC002002BD003C02409F
:102AE00038B586B01422002101A8FFF714FE00219A
:102AF0002148224D224C0091026842F0800202607F
:102B00000022016801F080010091009900920368A1
:102B100043F001030360016801F001010091009995
:102B20000092036843F004030360016801F00401AC
:102B3000009100990092F021036843F002030360C2
:102B4000006800F00200009000982846FFF759FF47
:102B5000002207212046FFF754FFF02100F012F871
:102B60002846FFF777FE072100F00CF82046FFF714
:102B700071FE07B030BD000030380240000802404E
:102B8000000402400191012200210391049102926C
:102B900001A9704780B50020009000220948016813
:102BA00041F4800101600021006800F48000009081
:102BB0000098382000F0C8FBBDE80240382000F043
:102BC000E0BB00BF303802403C2000BF00BF00BF68
:102BD00000BF00BF00BF00BF00BF00BF00BF00BFFD
:102BE00000BF00BF00BF00BF00BF00BF00BF00BFED
:102BF00000BF00BF00BF00BF00BF00BF00BF00BFDD
:102C000000BF00BF00BF00BF00BF00BF00BF00BFCC
:102C100000BF00BF00BF00BF00BF00BF00BF00BFBC
:102C200000BF00BF00BF00BF00BF00BF00BF00BFAC
:102C300000BF00BF00BF00BF00BF00BF00BF00BF9C
:102C400000BF00BF00BF00BF00BF00BF00BF00BF8C
:102C500000BF00BF00BF00BF00BF00BF00BF00BF7C
:102C600000BF00BF00BF00BF00BF00BF00BF00BF6C
:102C700000BF00BF00BF00BF00BF00BF00BF00BF5C
:102C800000BF00BF00BF00BF00BF00BF00BF00BF4C
:102C900000BF00BF00BF00BF00BF00BF00BF00BF3C
:102CA00000BF00BF00BF00BF00BF00BF00BF00BF2C
:102CB00000BF00BF00BF00BF00BF00BF00BF00BF1C
:102CC00000BF00BF00BF00BF00BF00BF00BF00BF0C
:102CD00000BF00BF00BF00BF00BF00BF00BF00BFFC
:102CE00000BF00BF00BF00BF00BF00BF00BF00BFEC
:102CF00000BF00BF00BF00BF00BF00BF00BF00BFDC
:102D000000BF00BF00BF00BF00BF00BF401E0028C3
:102D10007FF45BAF704781B0002343F6E462009319
:102D2000504301E00098401E009000980028F9D11F
:102D300001B0704770B50446184D0022032108E029
:102D400070B50446154D0122022100F038F800222A
:102D5000012100F034F800F030F8114E00F022F8B4
:102D600000F025F80120FFF72FFF002200F026F8E1
:102D70000120FFF729FF00F020F800F013F82401EC
:102D800000F015F80120FFF71FFF002200F016F8F1
:102D9000BDE870400220BEE70000000000040240D1
:102DA000000802400022F0213046FFF72ABE01222F
:102DB00004F0F0013046FFF724BE0122042128462A
:102DC000FFF71FBE0120B5E7012905D007D303296E
:102DD00004D038BF143002E0403000E0543040F0FE
:102DE0008000C0B2A6E770B504000D4608D00026EA
:102DF00003E0205CFFF7A4FF761CF0B2A842F8D3F2
:102E000070BD38B5040008D0002502E0FFF798FF38
:102E10006D1CE8B2205C0028F8D131BD0CB430B58F
:102E200083B00A4606A90291044600250194009544
:102E300002AB01A9084878441E30FDF7A5F9019AB4
:102E4000157000284EBF04460198041B204603B0AD
:102E500030BC5DF80CFB00BF9BE4FFFF38B50446B7
:102E6000FFF7EAFD14F1010F054602D0044801788E
:102E70006418FFF7E1FD401BA042FAD331BD00BF4B
:102E8000000000202DE9F843040016D02078DFF878
:102E9000F462C10713D5B06800F00C00042807D015
:102EA000B06800F00C0008283DD1706841023AD5A6
:102EB0003068810303D56068002800F05E812078C7
:102EC000B14F810719D5B06810F00C0F07D0B0686A
:102ED00000F00C0008285BD17068410258D43068BB
:102EE000810703D5E068012840F0478131682069F7
:102EF00021F0F80141EAC00131602178080779D555
:102F00006069A249002868D001220A60FFF794FD99
:102F10000546706F81076DD4FFF78EFD401B0228B8
:102F2000F7D903202CE16068B0F5803F04D1306808
:102F300040F48030306011E0B0F5A02F306806D149
:102F400040F480203060316841F4803105E020F4A5
:102F500080303060316821F480213160606858B180
:102F6000FFF76AFD054630688103A8D4FFF764FDCA
:102F7000401B6528F7D3D4E7FFF75EFD05463068B0
:102F800081039CD5FFF758FD401B6528F7D3C8E7A0
:102F9000E068A8B101213960FFF74EFD05463068B1
:102FA000810705D4FFF748FD401B0228F7D9B8E791
:102FB0003068216920F0F80040EAC10030609CE7E9
:102FC0003860FFF739FD05463168880795D5FFF76A
:102FD00033FD401B0228F7D9A3E70860FFF72CFD5B
:102FE0000546706F810705D5FFF726FD401B0228B7
:102FF000F7D996E7207841075FD5306C0025C100EE
:103000000AD400950125316C41F080513164306C57
:1030100000F0805000900098DFF87481D8F800002C
:10302000C10513D4D8F8000040F48070C8F800003F
:10303000FFF702FD8146D8F80000C10506D4FFF76E
:10304000FBFCA0EB09000228F5D96AE7A06801287B
:1030500005D00528306F06D140F004003067306F8E
:1030600040F0010005E0400840003067306F20F07C
:103070000400306741F28938A06860B1FFF7DCFCDA
:103080008146306F810713D4FFF7D6FCA0EB09000F
:103090004045F6D345E7FFF7CFFC8146306F810707
:1030A00006D5FFF7C9FCA0EB09004045F6D338E789
:1030B0001DB1306C20F080503064A06900285ED0D3
:1030C000B16801F00C0108293AD002282AD1002069
:1030D0003866FFF7B1FC05463068810105D5FFF77A
:1030E000ABFC401B0228F7D91BE7E069216A626A42
:1030F0000843A16A490840EA8210491E40EA01409B
:10310000E16A40EA0160706001203866FFF794FCD4
:1031100004463068810132D4FFF78EFC001B022880
:10312000F7D9FEE600203866FFF786FC04463068D3
:10313000810124D5FFF780FC001B0228F7D9F0E6B7
:1031400001281AD07068E26900F48001914202BF40
:1031500000F03F01226A91420FD147F6C071626AC6
:103160000140914202BF00F44031A26A914202BF85
:1031700000F07060E16A884201D0012000E0002088
:10318000BDE8F2830038024000004742800E47420B
:10319000007000402DE9F04104000F4654D0404E2D
:1031A000306800F00F00B84202D200F073F84BD143
:1031B00020683C4D810712D5400703D5A96841F42A
:1031C000E051A9602078010703D5A86840F4604069
:1031D000A860A968A06821F0F0010143A9602178E6
:1031E000C80729D56068012802D129688A0305E04B
:1031F000022818BF032803D129688A0103D423E0D9
:1032000029688A0720D5A968890840EA8100A86052
:10321000FFF712FC8046A868616800F00C00B0EB74
:10322000810F09D0FFF708FCA0EB080041F28931BB
:103230008842F0D303202BE0306800F00F00874273
:1032400004D200F027F801D0012021E020784107C6
:1032500005D5AA68E06822F4E0520243AA6021780A
:10326000080706D5A968206921F4604141EAC00138
:10327000A96000F01FF8AA680B490C4BC2F30312B7
:10328000895CC84018600A48006800F0A5F8002072
:10329000BDE8F0813770316801F00F01B942704725
:1032A000003C0240003802406C3400080C00002052
:1032B0000800002030B5144C606800F00C000428B1
:1032C00002D0082802D01DE0104830BD22682068D6
:1032D0000023410202F03F0204D525680B49C5F3E3
:1032E000881003E020680A49C0F38810A1FB0001A0
:1032F000FEF74AFC2168C1F30141491C4900B0FBBB
:10330000F1F030BD024830BD0438024000127A00AE
:103310000024F4000901020002D4294881547047B6
:10332000284B02F00F021A4402F8041C7047264B87
:1033300019684FF6FF020002114000F4E0600843F4
:10334000224908431860704770B51F4B1C68C4F3CE
:1033500002230124C3F10705052D2EBF0F2504FA12
:1033600005F56D1E1E1D072E34BF0023DB1E2940F0
:10337000994004FA03F3BDE870405B1E1A40114304
:10338000C8E7010007D4012200F01F01104B8A405A
:10339000400943F82020704710B5401EB0F1807FEF
:1033A00001D3012010BD0B4C60600F214FF0FF30A6
:1033B000FFF7B0FF0021A16007202060002010BDB2
:1033C00000E400E018ED00E00CED00E00000FA057C
:1033D00000E100E010E000E038B50D4D0D4B2A781B
:1033E00004464FF47A711868B1FBF2F2B0FBF2F0C8
:1033F000FFF7D2FF50B9102C08D2002221464FF01F
:10340000FF30FFF7A1FFAC60002032BD012032BDCC
:10341000000000200C00002081B00020009000225D
:103420000A48416841F480414160416801F48041AB
:10343000009100990092036843F080530360006894
:1034400000F080500090009801B070474038024072
:103450000448054A016841F4700101604FF00060C2
:103460001060704788ED00E008ED00E0000000000B
:1034700000000000010203040607080910B507490F
:1034800079441831064C7C44163404E00A68081D5F
:10349000114488470146A142F8D110BD2C0000001C
:1034A0004C0000004EF68851CEF20001086840F44E
:1034B00070000860BFF34F8FBFF36F8F4FF0007045
:1034C000E1EE100A7047000037DDFFFFBC0000008E
:1034D000100000200000000077DDFFFF100000005A
:1034E0008000000000000020000000007047FEE7A0
:1034F000FEE7FEE7FEE770477047704700F006B84A
:103500000148FEF7FDBF000010000020024841689E
:1035100002788A18426070470000002000F00DF821
:10352000002801D0FFF7AAFFAFF300800020AFF31F
:103530000080FFF7FBF800F002F80120704700F070
:1035400001B8000007463846FEF764FCFBE70000C0
:103550000148804701480047513400087135000890
:103560000100000000000000100000000024F40032
:10357000AFF30080FFF796FFFFF7D0FFFFF7FEBF26
:10358000FFF7FEBFFFF7FEBFFFF7FEBFFFF7FEBF6F
:10359000FFF7FEBFFFF7FEBFFFF7FEBFFFF7FEBF5F
:1035A000FFF7FEBFFFF7FEBFFFF7FEBFFFF7FEBF4F
:1035B000FFF7FEBFFFF7FEBFFFF7FEBFFFF7FEBF3F
:1035C000FFF7FEBFFFF7FEBFFFF7FEBFFFF7FEBF2F
:1035D000FFF7FEBFFFF7FEBFFFF7FEBFFFF7FEBF1F
:1035E000FFF7FEBFFFF7FEBFFFF7FEBFFFF7FEBF0F
:1035F000FFF7FEBFFFF7FEBFFFF7FEBFFFF7FEBFFF
:10360000FFF7FEBFFFF7FEBFFFF7FEBFFFF7FEBFEE
:10361000FFF7FEBFFFF7FEBFFFF7FEBFFFF7FEBFDE
:10362000FFF7FEBFFFF7FEBFFFF7FEBFFFF7FEBFCE
:10363000FFF7FEBFFFF7FEBFFFF7FEBFFFF7FEBFBE
:10364000FFF7FEBFFFF7FEBFFFF7FEBFFFF7FEBFAE
:10365000FFF7FEBFFFF7FEBFFFF7FEBFFFF7FEBF9E
:10366000FFF7FEBFFFF7FEBFFFF7FEBFFFF7FEBF8E
:10367000FFF7FEBFFFF7FEBFFFF7FEBFFFF7FEBF7E
:10368000FFF7FEBFFFF7FEBFFFF7FEBFFFF7FEBF6E
:10369000FFF7FEBFFFF7FEBFFFF7FEBFFFF7FEBF5E
:1036A000FFF7FEBFFFF7FEBFFFF7FEBFFFF7FEBF4E
:040000050800357149
:00000001FF
